{
  "contractName": "PasswordDataBase",
  "abi": [
    {
      "constant": false,
      "inputs": [
        {
          "name": "_managerAdresss",
          "type": "address"
        }
      ],
      "name": "setmanagerAdress",
      "outputs": [],
      "payable": false,
      "stateMutability": "nonpayable",
      "type": "function"
    },
    {
      "constant": true,
      "inputs": [
        {
          "name": "",
          "type": "uint256"
        }
      ],
      "name": "Passwords",
      "outputs": [
        {
          "name": "id",
          "type": "uint256"
        },
        {
          "name": "userId",
          "type": "uint256"
        },
        {
          "name": "passHash",
          "type": "string"
        }
      ],
      "payable": false,
      "stateMutability": "view",
      "type": "function"
    },
    {
      "constant": true,
      "inputs": [],
      "name": "ownerAddress",
      "outputs": [
        {
          "name": "",
          "type": "address"
        }
      ],
      "payable": false,
      "stateMutability": "view",
      "type": "function"
    },
    {
      "constant": true,
      "inputs": [
        {
          "name": "",
          "type": "uint256"
        },
        {
          "name": "",
          "type": "uint256"
        }
      ],
      "name": "userPasswordIds",
      "outputs": [
        {
          "name": "",
          "type": "uint256"
        }
      ],
      "payable": false,
      "stateMutability": "view",
      "type": "function"
    },
    {
      "constant": true,
      "inputs": [],
      "name": "managerAddress",
      "outputs": [
        {
          "name": "",
          "type": "address"
        }
      ],
      "payable": false,
      "stateMutability": "view",
      "type": "function"
    },
    {
      "constant": true,
      "inputs": [
        {
          "name": "",
          "type": "uint256"
        }
      ],
      "name": "passwordIds",
      "outputs": [
        {
          "name": "",
          "type": "uint256"
        }
      ],
      "payable": false,
      "stateMutability": "view",
      "type": "function"
    },
    {
      "constant": false,
      "inputs": [
        {
          "name": "_newOwner",
          "type": "address"
        }
      ],
      "name": "setNewOwner",
      "outputs": [],
      "payable": false,
      "stateMutability": "nonpayable",
      "type": "function"
    },
    {
      "constant": false,
      "inputs": [
        {
          "name": "_userId",
          "type": "uint256"
        },
        {
          "name": "_passHash",
          "type": "string"
        }
      ],
      "name": "createPassword",
      "outputs": [
        {
          "name": "",
          "type": "uint256"
        }
      ],
      "payable": false,
      "stateMutability": "nonpayable",
      "type": "function"
    },
    {
      "constant": true,
      "inputs": [
        {
          "name": "_userId",
          "type": "uint256"
        }
      ],
      "name": "getPasswordIdsFromUser",
      "outputs": [
        {
          "name": "",
          "type": "uint256[]"
        }
      ],
      "payable": false,
      "stateMutability": "view",
      "type": "function"
    }
  ],
  "bytecode": "0x60606040526000600555341561001457600080fd5b610954806100236000396000f300606060405260043610610099576000357c0100000000000000000000000000000000000000000000000000000000900463ffffffff168063255a75df1461009e57806388bbfdbc146100d75780638f84aa091461019e5780639d36059d146101f3578063a6174a1a14610233578063aa3b433a146102ab578063cf73a1bc14610325578063d9f453871461037a578063f5a1f5b4146103b1575b600080fd5b34156100a957600080fd5b6100d5600480803573ffffffffffffffffffffffffffffffffffffffff169060200190919050506103ea565b005b34156100e257600080fd5b6100f8600480803590602001909190505061048a565b604051808481526020018381526020018060200182810382528381815460018160011615610100020316600290048152602001915080546001816001161561010002031660029004801561018d5780601f106101625761010080835404028352916020019161018d565b820191906000526020600020905b81548152906001019060200180831161017057829003601f168201915b505094505050505060405180910390f35b34156101a957600080fd5b6101b16104b3565b604051808273ffffffffffffffffffffffffffffffffffffffff1673ffffffffffffffffffffffffffffffffffffffff16815260200191505060405180910390f35b34156101fe57600080fd5b61021d60048080359060200190919080359060200190919050506104d8565b6040518082815260200191505060405180910390f35b341561023e57600080fd5b6102546004808035906020019091905050610509565b6040518080602001828103825283818151815260200191508051906020019060200280838360005b8381101561029757808201518184015260208101905061027c565b505050509050019250505060405180910390f35b34156102b657600080fd5b61030f600480803590602001909190803590602001908201803590602001908080601f016020809104026020016040519081016040528093929190818152602001838380828437820191505050505050919050506105d6565b6040518082815260200191505060405180910390f35b341561033057600080fd5b61033861071f565b604051808273ffffffffffffffffffffffffffffffffffffffff1673ffffffffffffffffffffffffffffffffffffffff16815260200191505060405180910390f35b341561038557600080fd5b61039b6004808035906020019091905050610745565b6040518082815260200191505060405180910390f35b34156103bc57600080fd5b6103e8600480803573ffffffffffffffffffffffffffffffffffffffff16906020019091905050610769565b005b600160009054906101000a900473ffffffffffffffffffffffffffffffffffffffff1673ffffffffffffffffffffffffffffffffffffffff163373ffffffffffffffffffffffffffffffffffffffff1614151561044657600080fd5b80600160006101000a81548173ffffffffffffffffffffffffffffffffffffffff021916908373ffffffffffffffffffffffffffffffffffffffff16021790555050565b600260205280600052604060002060009150905080600001549080600101549080600201905083565b6000809054906101000a900473ffffffffffffffffffffffffffffffffffffffff1681565b6004602052816000526040600020818154811015156104f357fe5b9060005260206000209001600091509150505481565b610511610843565b600160009054906101000a900473ffffffffffffffffffffffffffffffffffffffff1673ffffffffffffffffffffffffffffffffffffffff163373ffffffffffffffffffffffffffffffffffffffff1614151561056d57600080fd5b600460008381526020019081526020016000208054806020026020016040519081016040528092919081815260200182805480156105ca57602002820191906000526020600020905b8154815260200190600101908083116105b6575b50505050509050919050565b6000600160009054906101000a900473ffffffffffffffffffffffffffffffffffffffff1673ffffffffffffffffffffffffffffffffffffffff163373ffffffffffffffffffffffffffffffffffffffff1614151561063457600080fd5b600560008154809291906001019190505550606060405190810160405280600554815260200184815260200183815250600260006005548152602001908152602001600020600082015181600001556020820151816001015560408201518160020190805190602001906106a9929190610857565b509050506004600084815260200190815260200160002080548060010182816106d291906108d7565b9160005260206000209001600060055490919091505550600380548060010182816106fd91906108d7565b9160005260206000209001600060055490919091505550600554905092915050565b600160009054906101000a900473ffffffffffffffffffffffffffffffffffffffff1681565b60038181548110151561075457fe5b90600052602060002090016000915090505481565b6000809054906101000a900473ffffffffffffffffffffffffffffffffffffffff1673ffffffffffffffffffffffffffffffffffffffff163373ffffffffffffffffffffffffffffffffffffffff161415156107c457600080fd5b600073ffffffffffffffffffffffffffffffffffffffff168173ffffffffffffffffffffffffffffffffffffffff161415151561080057600080fd5b806000806101000a81548173ffffffffffffffffffffffffffffffffffffffff021916908373ffffffffffffffffffffffffffffffffffffffff16021790555050565b602060405190810160405280600081525090565b828054600181600116156101000203166002900490600052602060002090601f016020900481019282601f1061089857805160ff19168380011785556108c6565b828001600101855582156108c6579182015b828111156108c55782518255916020019190600101906108aa565b5b5090506108d39190610903565b5090565b8154818355818115116108fe578183600052602060002091820191016108fd9190610903565b5b505050565b61092591905b80821115610921576000816000905550600101610909565b5090565b905600a165627a7a72305820cc56a498b8bd6b5d42c4bc121e5b8a00d6246851a0ac57b5d6c8279fce52a19e0029",
  "source": "pragma solidity ^0.4.19;\n\nimport '../Helpers/DataBaseParent.sol';\n\ncontract PasswordDataBase is DataBaseParent {\n    mapping(uint => Password) public Passwords;\n    uint[] public passwordIds;\n    mapping(uint => uint[]) public userPasswordIds;\n\n    struct Password{\n        uint id;\n        uint userId;\n        string passHash;\n    }\n\n    uint latestPasswordId = 0;\n    \n    function createPassword (uint _userId, string _passHash) public onlyManager returns(uint){\n        latestPasswordId++;\n\n        Passwords[latestPasswordId] = Password(latestPasswordId, _userId, _passHash);\n        userPasswordIds[_userId].push(latestPasswordId);\n        passwordIds.push(latestPasswordId);\n\n        return latestPasswordId;\n    }\n\n    function getPasswordIdsFromUser (uint _userId) view public onlyManager returns(uint[]) { // retrieve all the passwords from a user\n        return userPasswordIds[_userId];\n    }\n}",
  "sourcePath": "/home/mihai/Documents/UPT/licenta/pass_storage/contracts/Passwords/PasswordsDataBase.sol",
  "compiler": {
    "name": "solc",
    "version": "0.4.19+commit.c4cbbb05.Linux.g++"
  },
  "schemaVersion": "3.4.0",
  "updatedAt": "2021-05-15T16:18:52.345Z",
  "devdoc": {
    "methods": {}
  },
  "userdoc": {
    "methods": {}
  }
}