{
  "contractName": "PasswordManager",
  "abi": [
    {
      "constant": true,
      "inputs": [],
      "name": "ownerAddress",
      "outputs": [
        {
          "name": "",
          "type": "address"
        }
      ],
      "payable": false,
      "stateMutability": "view",
      "type": "function"
    },
    {
      "constant": false,
      "inputs": [
        {
          "name": "_dispatcherAddress",
          "type": "address"
        }
      ],
      "name": "setDispatcherAddress",
      "outputs": [],
      "payable": false,
      "stateMutability": "nonpayable",
      "type": "function"
    },
    {
      "constant": false,
      "inputs": [
        {
          "name": "_newOwner",
          "type": "address"
        }
      ],
      "name": "setNewOwner",
      "outputs": [],
      "payable": false,
      "stateMutability": "nonpayable",
      "type": "function"
    },
    {
      "constant": false,
      "inputs": [
        {
          "name": "_passHash",
          "type": "string"
        }
      ],
      "name": "createPassword",
      "outputs": [
        {
          "name": "",
          "type": "uint256"
        }
      ],
      "payable": false,
      "stateMutability": "nonpayable",
      "type": "function"
    }
  ],
  "bytecode": "0x6060604052341561000f57600080fd5b6107058061001e6000396000f300606060405260043610610062576000357c0100000000000000000000000000000000000000000000000000000000900463ffffffff1680638f84aa09146100675780639abb6551146100bc578063afaebf3e1461012d578063f5a1f5b414610166575b600080fd5b341561007257600080fd5b61007a61019f565b604051808273ffffffffffffffffffffffffffffffffffffffff1673ffffffffffffffffffffffffffffffffffffffff16815260200191505060405180910390f35b34156100c757600080fd5b610117600480803590602001908201803590602001908080601f016020809104026020016040519081016040528093929190818152602001838380828437820191505050505050919050506101c4565b6040518082815260200191505060405180910390f35b341561013857600080fd5b610164600480803573ffffffffffffffffffffffffffffffffffffffff16906020019091905050610560565b005b341561017157600080fd5b61019d600480803573ffffffffffffffffffffffffffffffffffffffff169060200190919050506105ff565b005b6000809054906101000a900473ffffffffffffffffffffffffffffffffffffffff1681565b6000806000806000806000600160009054906101000a900473ffffffffffffffffffffffffffffffffffffffff1695508573ffffffffffffffffffffffffffffffffffffffff1663bf40fac16000604051602001526040518163ffffffff167c010000000000000000000000000000000000000000000000000000000002815260040180806020018281038252600c8152602001807f5573657244617461426173650000000000000000000000000000000000000000815250602001915050602060405180830381600087803b151561029c57600080fd5b6102c65a03f115156102ad57600080fd5b5050506040518051905094508493508373ffffffffffffffffffffffffffffffffffffffff166382d38954336000604051602001526040518263ffffffff167c0100000000000000000000000000000000000000000000000000000000028152600401808273ffffffffffffffffffffffffffffffffffffffff1673ffffffffffffffffffffffffffffffffffffffff168152602001915050602060405180830381600087803b151561035f57600080fd5b6102c65a03f1151561037057600080fd5b5050506040518051905092506000831415151561038c57600080fd5b8573ffffffffffffffffffffffffffffffffffffffff1663bf40fac16000604051602001526040518163ffffffff167c01000000000000000000000000000000000000000000000000000000000281526004018080602001828103825260108152602001807f50617373776f7264446174614261736500000000000000000000000000000000815250602001915050602060405180830381600087803b151561043457600080fd5b6102c65a03f1151561044557600080fd5b5050506040518051905091508190508073ffffffffffffffffffffffffffffffffffffffff1663aa3b433a848a6000604051602001526040518363ffffffff167c01000000000000000000000000000000000000000000000000000000000281526004018083815260200180602001828103825283818151815260200191508051906020019080838360005b838110156104ec5780820151818401526020810190506104d1565b50505050905090810190601f1680156105195780820380516001836020036101000a031916815260200191505b509350505050602060405180830381600087803b151561053857600080fd5b6102c65a03f1151561054957600080fd5b505050604051805190509650505050505050919050565b6000809054906101000a900473ffffffffffffffffffffffffffffffffffffffff1673ffffffffffffffffffffffffffffffffffffffff163373ffffffffffffffffffffffffffffffffffffffff161415156105bb57600080fd5b80600160006101000a81548173ffffffffffffffffffffffffffffffffffffffff021916908373ffffffffffffffffffffffffffffffffffffffff16021790555050565b6000809054906101000a900473ffffffffffffffffffffffffffffffffffffffff1673ffffffffffffffffffffffffffffffffffffffff163373ffffffffffffffffffffffffffffffffffffffff1614151561065a57600080fd5b600073ffffffffffffffffffffffffffffffffffffffff168173ffffffffffffffffffffffffffffffffffffffff161415151561069657600080fd5b806000806101000a81548173ffffffffffffffffffffffffffffffffffffffff021916908373ffffffffffffffffffffffffffffffffffffffff160217905550505600a165627a7a72305820b5682a2255dcb7f4a150e054c9ede84bebf312e27b6a7b9cf090f4641934858c0029",
  "source": "pragma solidity ^0.4.19;\n\nimport '../Helpers/ManagerParent.sol';\nimport '../Dispatcher.sol';\nimport '../Users/UserDataBase.sol';\nimport './PasswordsDataBase.sol';\n\n\ncontract PasswordManager is ManagerParent {\n    function createPassword (string _passHash) public returns(uint) {\n        Dispatcher _dipatcher = Dispatcher(dispatcherAddress);\n\n        address _userDataBaseAddress = _dipatcher.getAddress(\"UserDataBase\");\n        UserDataBase _userDataBase = UserDataBase(_userDataBaseAddress);\n        uint _userId = _userDataBase.addresses(msg.sender);\n\n        require(_userId != 0);\n\n        address _passwordDataBaseAddress = _dipatcher.getAddress(\"PasswordDataBase\");\n        PasswordDataBase _passwordDataBase = PasswordDataBase(_passwordDataBaseAddress);\n\n        return _passwordDataBase.createPassword(_userId, _passHash);\n    }\n}",
  "sourcePath": "/home/mihai/Documents/UPT/licenta/pass_storage/contracts/Passwords/PasswordManager.sol",
  "compiler": {
    "name": "solc",
    "version": "0.4.19+commit.c4cbbb05.Linux.g++"
  },
  "schemaVersion": "3.4.0",
  "updatedAt": "2021-05-15T16:18:52.344Z",
  "devdoc": {
    "methods": {}
  },
  "userdoc": {
    "methods": {}
  }
}