{
  "contractName": "PasswordManager",
  "abi": [
    {
      "constant": true,
      "inputs": [],
      "name": "ownerAddress",
      "outputs": [
        {
          "name": "",
          "type": "address"
        }
      ],
      "payable": false,
      "stateMutability": "view",
      "type": "function"
    },
    {
      "constant": false,
      "inputs": [
        {
          "name": "_dispatcherAddress",
          "type": "address"
        }
      ],
      "name": "setDispatcherAddress",
      "outputs": [],
      "payable": false,
      "stateMutability": "nonpayable",
      "type": "function"
    },
    {
      "constant": false,
      "inputs": [
        {
          "name": "_newOwner",
          "type": "address"
        }
      ],
      "name": "setNewOwner",
      "outputs": [],
      "payable": false,
      "stateMutability": "nonpayable",
      "type": "function"
    },
    {
      "constant": false,
      "inputs": [
        {
          "name": "_passHash",
          "type": "string"
        }
      ],
      "name": "createPassword",
      "outputs": [
        {
          "name": "",
          "type": "uint256"
        }
      ],
      "payable": false,
      "stateMutability": "nonpayable",
      "type": "function"
    },
    {
      "constant": false,
      "inputs": [],
      "name": "getPasswordIdsFromUser",
      "outputs": [
        {
          "name": "",
          "type": "uint256[]"
        }
      ],
      "payable": false,
      "stateMutability": "nonpayable",
      "type": "function"
    }
  ],
  "bytecode": "0x6080604052336000806101000a81548173ffffffffffffffffffffffffffffffffffffffff021916908373ffffffffffffffffffffffffffffffffffffffff160217905550610be1806100536000396000f30060806040526004361061006d576000357c0100000000000000000000000000000000000000000000000000000000900463ffffffff1680638f84aa09146100725780639abb6551146100c9578063afaebf3e14610146578063f5a1f5b414610189578063f7cd2259146101cc575b600080fd5b34801561007e57600080fd5b50610087610238565b604051808273ffffffffffffffffffffffffffffffffffffffff1673ffffffffffffffffffffffffffffffffffffffff16815260200191505060405180910390f35b3480156100d557600080fd5b50610130600480360381019080803590602001908201803590602001908080601f016020809104026020016040519081016040528093929190818152602001838380828437820191505050505050919291929050505061025d565b6040518082815260200191505060405180910390f35b34801561015257600080fd5b50610187600480360381019080803573ffffffffffffffffffffffffffffffffffffffff169060200190929190505050610659565b005b34801561019557600080fd5b506101ca600480360381019080803573ffffffffffffffffffffffffffffffffffffffff1690602001909291905050506106f8565b005b3480156101d857600080fd5b506101e16107d2565b6040518080602001828103825283818151815260200191508051906020019060200280838360005b83811015610224578082015181840152602081019050610209565b505050509050019250505060405180910390f35b6000809054906101000a900473ffffffffffffffffffffffffffffffffffffffff1681565b6000806000806000806000600160009054906101000a900473ffffffffffffffffffffffffffffffffffffffff1695508573ffffffffffffffffffffffffffffffffffffffff1663bf40fac16040518163ffffffff167c010000000000000000000000000000000000000000000000000000000002815260040180806020018281038252600c8152602001807f5573657244617461426173650000000000000000000000000000000000000000815250602001915050602060405180830381600087803b15801561032d57600080fd5b505af1158015610341573d6000803e3d6000fd5b505050506040513d602081101561035757600080fd5b810190808051906020019092919050505094508493508373ffffffffffffffffffffffffffffffffffffffff166382d38954336040518263ffffffff167c0100000000000000000000000000000000000000000000000000000000028152600401808273ffffffffffffffffffffffffffffffffffffffff1673ffffffffffffffffffffffffffffffffffffffff168152602001915050602060405180830381600087803b15801561040857600080fd5b505af115801561041c573d6000803e3d6000fd5b505050506040513d602081101561043257600080fd5b810190808051906020019092919050505092506000831415151561045557600080fd5b8573ffffffffffffffffffffffffffffffffffffffff1663bf40fac16040518163ffffffff167c01000000000000000000000000000000000000000000000000000000000281526004018080602001828103825260108152602001807f50617373776f7264446174614261736500000000000000000000000000000000815250602001915050602060405180830381600087803b1580156104f557600080fd5b505af1158015610509573d6000803e3d6000fd5b505050506040513d602081101561051f57600080fd5b810190808051906020019092919050505091508190508073ffffffffffffffffffffffffffffffffffffffff1663aa3b433a848a6040518363ffffffff167c01000000000000000000000000000000000000000000000000000000000281526004018083815260200180602001828103825283818151815260200191508051906020019080838360005b838110156105c45780820151818401526020810190506105a9565b50505050905090810190601f1680156105f15780820380516001836020036101000a031916815260200191505b509350505050602060405180830381600087803b15801561061157600080fd5b505af1158015610625573d6000803e3d6000fd5b505050506040513d602081101561063b57600080fd5b81019080805190602001909291905050509650505050505050919050565b6000809054906101000a900473ffffffffffffffffffffffffffffffffffffffff1673ffffffffffffffffffffffffffffffffffffffff163373ffffffffffffffffffffffffffffffffffffffff161415156106b457600080fd5b80600160006101000a81548173ffffffffffffffffffffffffffffffffffffffff021916908373ffffffffffffffffffffffffffffffffffffffff16021790555050565b6000809054906101000a900473ffffffffffffffffffffffffffffffffffffffff1673ffffffffffffffffffffffffffffffffffffffff163373ffffffffffffffffffffffffffffffffffffffff1614151561075357600080fd5b600073ffffffffffffffffffffffffffffffffffffffff168173ffffffffffffffffffffffffffffffffffffffff161415151561078f57600080fd5b806000806101000a81548173ffffffffffffffffffffffffffffffffffffffff021916908373ffffffffffffffffffffffffffffffffffffffff16021790555050565b6060600080600080600080600160009054906101000a900473ffffffffffffffffffffffffffffffffffffffff1695508573ffffffffffffffffffffffffffffffffffffffff1663bf40fac16040518163ffffffff167c010000000000000000000000000000000000000000000000000000000002815260040180806020018281038252600c8152602001807f5573657244617461426173650000000000000000000000000000000000000000815250602001915050602060405180830381600087803b1580156108a257600080fd5b505af11580156108b6573d6000803e3d6000fd5b505050506040513d60208110156108cc57600080fd5b810190808051906020019092919050505094508493508373ffffffffffffffffffffffffffffffffffffffff166382d38954336040518263ffffffff167c0100000000000000000000000000000000000000000000000000000000028152600401808273ffffffffffffffffffffffffffffffffffffffff1673ffffffffffffffffffffffffffffffffffffffff168152602001915050602060405180830381600087803b15801561097d57600080fd5b505af1158015610991573d6000803e3d6000fd5b505050506040513d60208110156109a757600080fd5b81019080805190602001909291905050509250600083141515156109ca57600080fd5b8573ffffffffffffffffffffffffffffffffffffffff1663bf40fac16040518163ffffffff167c01000000000000000000000000000000000000000000000000000000000281526004018080602001828103825260108152602001807f50617373776f7264446174614261736500000000000000000000000000000000815250602001915050602060405180830381600087803b158015610a6a57600080fd5b505af1158015610a7e573d6000803e3d6000fd5b505050506040513d6020811015610a9457600080fd5b810190808051906020019092919050505091508190508073ffffffffffffffffffffffffffffffffffffffff1663a6174a1a846040518263ffffffff167c010000000000000000000000000000000000000000000000000000000002815260040180828152602001915050600060405180830381600087803b158015610b1957600080fd5b505af1158015610b2d573d6000803e3d6000fd5b505050506040513d6000823e3d601f19601f820116820180604052506020811015610b5757600080fd5b810190808051640100000000811115610b6f57600080fd5b82810190506020810184811115610b8557600080fd5b8151856020820283011164010000000082111715610ba257600080fd5b50509291905050509650505050505050905600a165627a7a72305820b67fde9a56f4a371fa030a1d2237f63b553814b776674fc4d07336d940c3a6310029",
  "source": "pragma solidity ^0.4.23;\n\nimport '../Helpers/ManagerParent.sol';\nimport '../Dispatcher.sol';\nimport '../Users/UserDataBase.sol';\nimport './PasswordDataBase.sol';\n\n\ncontract PasswordManager is ManagerParent {\n    function createPassword (string _passHash) public returns(uint) {\n        Dispatcher _dipatcher = Dispatcher(dispatcherAddress);\n\n        address _userDataBaseAddress = _dipatcher.getAddress(\"UserDataBase\");\n        UserDataBase _userDataBase = UserDataBase(_userDataBaseAddress);\n        uint _userId = _userDataBase.addresses(msg.sender);\n\n        require(_userId != 0);\n\n        address _passwordDataBaseAddress = _dipatcher.getAddress(\"PasswordDataBase\");\n        PasswordDataBase _passwordDataBase = PasswordDataBase(_passwordDataBaseAddress);\n\n        return _passwordDataBase.createPassword(_userId, _passHash);\n    }\n\n    function getPasswordIdsFromUser () public returns(uint[]) {\n        Dispatcher _dipatcher = Dispatcher(dispatcherAddress);\n\n        address _userDataBaseAddress = _dipatcher.getAddress(\"UserDataBase\");\n        UserDataBase _userDataBase = UserDataBase(_userDataBaseAddress);\n        uint _userId = _userDataBase.addresses(msg.sender);\n\n        require(_userId != 0);\n\n        address _passwordDataBaseAddress = _dipatcher.getAddress(\"PasswordDataBase\");\n        PasswordDataBase _passwordDataBase = PasswordDataBase(_passwordDataBaseAddress);\n\n        return _passwordDataBase.getPasswordIdsFromUser(_userId);\n    }\n}",
  "sourcePath": "/home/mihai/Documents/UPT/licenta/pass_storage/contracts/Passwords/PasswordManager.sol",
  "compiler": {
    "name": "solc",
    "version": "0.4.23+commit.124ca40d.Linux.g++"
  },
  "schemaVersion": "3.4.0",
  "updatedAt": "2021-05-23T16:29:44.267Z",
  "networkType": "ethereum",
  "devdoc": {
    "methods": {}
  },
  "userdoc": {
    "methods": {}
  }
}