{
  "contractName": "PasswordDataBase",
  "abi": [
    {
      "constant": false,
      "inputs": [
        {
          "name": "_managerAdresss",
          "type": "address"
        }
      ],
      "name": "setManagerAdress",
      "outputs": [],
      "payable": true,
      "stateMutability": "payable",
      "type": "function"
    },
    {
      "constant": true,
      "inputs": [
        {
          "name": "",
          "type": "uint256"
        }
      ],
      "name": "Passwords",
      "outputs": [
        {
          "name": "id",
          "type": "uint256"
        },
        {
          "name": "userId",
          "type": "uint256"
        },
        {
          "name": "passHash",
          "type": "string"
        }
      ],
      "payable": false,
      "stateMutability": "view",
      "type": "function"
    },
    {
      "constant": true,
      "inputs": [],
      "name": "ownerAddress",
      "outputs": [
        {
          "name": "",
          "type": "address"
        }
      ],
      "payable": false,
      "stateMutability": "view",
      "type": "function"
    },
    {
      "constant": true,
      "inputs": [
        {
          "name": "",
          "type": "uint256"
        },
        {
          "name": "",
          "type": "uint256"
        }
      ],
      "name": "userPasswordIds",
      "outputs": [
        {
          "name": "",
          "type": "uint256"
        }
      ],
      "payable": false,
      "stateMutability": "view",
      "type": "function"
    },
    {
      "constant": true,
      "inputs": [],
      "name": "managerAddress",
      "outputs": [
        {
          "name": "",
          "type": "address"
        }
      ],
      "payable": false,
      "stateMutability": "view",
      "type": "function"
    },
    {
      "constant": true,
      "inputs": [
        {
          "name": "",
          "type": "uint256"
        }
      ],
      "name": "passwordIds",
      "outputs": [
        {
          "name": "",
          "type": "uint256"
        }
      ],
      "payable": false,
      "stateMutability": "view",
      "type": "function"
    },
    {
      "constant": false,
      "inputs": [
        {
          "name": "_newOwner",
          "type": "address"
        }
      ],
      "name": "setNewOwner",
      "outputs": [],
      "payable": false,
      "stateMutability": "nonpayable",
      "type": "function"
    },
    {
      "constant": false,
      "inputs": [
        {
          "name": "_userId",
          "type": "uint256"
        },
        {
          "name": "_passHash",
          "type": "string"
        }
      ],
      "name": "createPassword",
      "outputs": [
        {
          "name": "",
          "type": "uint256"
        }
      ],
      "payable": true,
      "stateMutability": "payable",
      "type": "function"
    },
    {
      "constant": true,
      "inputs": [
        {
          "name": "_userId",
          "type": "uint256"
        }
      ],
      "name": "getPasswordIdsFromUser",
      "outputs": [
        {
          "name": "",
          "type": "uint256[]"
        }
      ],
      "payable": false,
      "stateMutability": "view",
      "type": "function"
    }
  ],
  "bytecode": "0x6080604052600060055534801561001557600080fd5b506108ae806100256000396000f300608060405260043610610099576000357c0100000000000000000000000000000000000000000000000000000000900463ffffffff1680637f7d33f51461009e57806388bbfdbc146100d45780638f84aa09146101885780639d36059d146101df578063a6174a1a1461022a578063aa3b433a146102ac578063cf73a1bc14610326578063d9f453871461037d578063f5a1f5b4146103be575b600080fd5b6100d2600480360381019080803573ffffffffffffffffffffffffffffffffffffffff169060200190929190505050610401565b005b3480156100e057600080fd5b506100ff60048036038101908080359060200190929190505050610445565b6040518084815260200183815260200180602001828103825283818151815260200191508051906020019080838360005b8381101561014b578082015181840152602081019050610130565b50505050905090810190601f1680156101785780820380516001836020036101000a031916815260200191505b5094505050505060405180910390f35b34801561019457600080fd5b5061019d610507565b604051808273ffffffffffffffffffffffffffffffffffffffff1673ffffffffffffffffffffffffffffffffffffffff16815260200191505060405180910390f35b3480156101eb57600080fd5b50610214600480360381019080803590602001909291908035906020019092919050505061052c565b6040518082815260200191505060405180910390f35b34801561023657600080fd5b506102556004803603810190808035906020019092919050505061055c565b6040518080602001828103825283818151815260200191508051906020019060200280838360005b8381101561029857808201518184015260208101905061027d565b505050509050019250505060405180910390f35b61031060048036038101908080359060200190929190803590602001908201803590602001908080601f01602080910402602001604051908101604052809392919081815260200183838082843782019150505050505091929192905050506105c7565b6040518082815260200191505060405180910390f35b34801561033257600080fd5b5061033b6106ba565b604051808273ffffffffffffffffffffffffffffffffffffffff1673ffffffffffffffffffffffffffffffffffffffff16815260200191505060405180910390f35b34801561038957600080fd5b506103a8600480360381019080803590602001909291905050506106e0565b6040518082815260200191505060405180910390f35b3480156103ca57600080fd5b506103ff600480360381019080803573ffffffffffffffffffffffffffffffffffffffff169060200190929190505050610703565b005b80600160006101000a81548173ffffffffffffffffffffffffffffffffffffffff021916908373ffffffffffffffffffffffffffffffffffffffff16021790555050565b6002602052806000526040600020600091509050806000015490806001015490806002018054600181600116156101000203166002900480601f0160208091040260200160405190810160405280929190818152602001828054600181600116156101000203166002900480156104fd5780601f106104d2576101008083540402835291602001916104fd565b820191906000526020600020905b8154815290600101906020018083116104e057829003601f168201915b5050505050905083565b6000809054906101000a900473ffffffffffffffffffffffffffffffffffffffff1681565b60046020528160005260406000208181548110151561054757fe5b90600052602060002001600091509150505481565b6060600460008381526020019081526020016000208054806020026020016040519081016040528092919081815260200182805480156105bb57602002820191906000526020600020905b8154815260200190600101908083116105a7575b50505050509050919050565b60006005600081548092919060010191905055506060604051908101604052806005548152602001848152602001838152506002600060055481526020019081526020016000206000820151816000015560208201518160010155604082015181600201908051906020019061063e9291906107dd565b5090505060046000848152602001908152602001600020600554908060018154018082558091505090600182039060005260206000200160009091929091909150555060036005549080600181540180825580915050906001820390600052602060002001600090919290919091505550600554905092915050565b600160009054906101000a900473ffffffffffffffffffffffffffffffffffffffff1681565b6003818154811015156106ef57fe5b906000526020600020016000915090505481565b6000809054906101000a900473ffffffffffffffffffffffffffffffffffffffff1673ffffffffffffffffffffffffffffffffffffffff163373ffffffffffffffffffffffffffffffffffffffff1614151561075e57600080fd5b600073ffffffffffffffffffffffffffffffffffffffff168173ffffffffffffffffffffffffffffffffffffffff161415151561079a57600080fd5b806000806101000a81548173ffffffffffffffffffffffffffffffffffffffff021916908373ffffffffffffffffffffffffffffffffffffffff16021790555050565b828054600181600116156101000203166002900490600052602060002090601f016020900481019282601f1061081e57805160ff191683800117855561084c565b8280016001018555821561084c579182015b8281111561084b578251825591602001919060010190610830565b5b509050610859919061085d565b5090565b61087f91905b8082111561087b576000816000905550600101610863565b5090565b905600a165627a7a72305820fc3f08ec0985e7936e218641abab90eb7b9c473901ea429e407c51d9427e83fa0029",
  "source": "pragma solidity ^0.4.23;\n\nimport '../Helpers/DataBaseParent.sol';\n\ncontract PasswordDataBase is DataBaseParent {\n    mapping(uint => Password) public Passwords;\n    uint[] public passwordIds;\n    mapping(uint => uint[]) public userPasswordIds;\n\n    struct Password{\n        uint id;\n        uint userId;\n        string passHash;\n    }\n\n    uint latestPasswordId = 0;\n    \n    function createPassword (uint _userId, string _passHash) public payable returns(uint){\n        latestPasswordId++;\n\n        Passwords[latestPasswordId] = Password(latestPasswordId, _userId, _passHash);\n        userPasswordIds[_userId].push(latestPasswordId);\n        passwordIds.push(latestPasswordId);\n\n        return latestPasswordId;\n    }\n\n    function getPasswordIdsFromUser (uint _userId) view public returns(uint[]) { // retrieve all the passwords from a user\n        return userPasswordIds[_userId];\n    }\n}",
  "sourcePath": "/home/mihai/Documents/UPT/licenta/pass_storage/contracts/Passwords/PasswordDataBase.sol",
  "compiler": {
    "name": "solc",
    "version": "0.4.23+commit.124ca40d.Linux.g++"
  },
  "schemaVersion": "3.4.0",
  "updatedAt": "2021-05-20T16:23:07.811Z",
  "networkType": "ethereum",
  "devdoc": {
    "methods": {}
  },
  "userdoc": {
    "methods": {}
  }
}