{
  "contractName": "UserManager",
  "abi": [
    {
      "constant": true,
      "inputs": [],
      "name": "ownerAddress",
      "outputs": [
        {
          "name": "",
          "type": "address"
        }
      ],
      "payable": false,
      "stateMutability": "view",
      "type": "function"
    },
    {
      "constant": false,
      "inputs": [
        {
          "name": "_dispatcherAddress",
          "type": "address"
        }
      ],
      "name": "setDispatcherAddress",
      "outputs": [],
      "payable": false,
      "stateMutability": "nonpayable",
      "type": "function"
    },
    {
      "constant": false,
      "inputs": [
        {
          "name": "_newOwner",
          "type": "address"
        }
      ],
      "name": "setNewOwner",
      "outputs": [],
      "payable": false,
      "stateMutability": "nonpayable",
      "type": "function"
    },
    {
      "constant": false,
      "inputs": [
        {
          "name": "_username",
          "type": "bytes32"
        },
        {
          "name": "_givenName",
          "type": "bytes32"
        },
        {
          "name": "_familyName",
          "type": "bytes32"
        }
      ],
      "name": "createUser",
      "outputs": [
        {
          "name": "_newUserId",
          "type": "uint256"
        }
      ],
      "payable": false,
      "stateMutability": "nonpayable",
      "type": "function"
    }
  ],
  "bytecode": "0x6060604052341561000f57600080fd5b6106ae8061001e6000396000f300606060405260043610610062576000357c0100000000000000000000000000000000000000000000000000000000900463ffffffff1680638f84aa0914610067578063afaebf3e146100bc578063aff96101146100f5578063f5a1f5b41461014a575b600080fd5b341561007257600080fd5b61007a610183565b604051808273ffffffffffffffffffffffffffffffffffffffff1673ffffffffffffffffffffffffffffffffffffffff16815260200191505060405180910390f35b34156100c757600080fd5b6100f3600480803573ffffffffffffffffffffffffffffffffffffffff169060200190919050506101a8565b005b341561010057600080fd5b6101346004808035600019169060200190919080356000191690602001909190803560001916906020019091905050610247565b6040518082815260200191505060405180910390f35b341561015557600080fd5b610181600480803573ffffffffffffffffffffffffffffffffffffffff169060200190919050506105a8565b005b6000809054906101000a900473ffffffffffffffffffffffffffffffffffffffff1681565b6000809054906101000a900473ffffffffffffffffffffffffffffffffffffffff1673ffffffffffffffffffffffffffffffffffffffff163373ffffffffffffffffffffffffffffffffffffffff1614151561020357600080fd5b80600160006101000a81548173ffffffffffffffffffffffffffffffffffffffff021916908373ffffffffffffffffffffffffffffffffffffffff16021790555050565b600080600080600160009054906101000a900473ffffffffffffffffffffffffffffffffffffffff1692508273ffffffffffffffffffffffffffffffffffffffff1663bf40fac16000604051602001526040518163ffffffff167c010000000000000000000000000000000000000000000000000000000002815260040180806020018281038252600c8152602001807f5573657244617461426173650000000000000000000000000000000000000000815250602001915050602060405180830381600087803b151561031a57600080fd5b6102c65a03f1151561032b57600080fd5b50505060405180519050915081905060008173ffffffffffffffffffffffffffffffffffffffff166382d38954336000604051602001526040518263ffffffff167c0100000000000000000000000000000000000000000000000000000000028152600401808273ffffffffffffffffffffffffffffffffffffffff1673ffffffffffffffffffffffffffffffffffffffff168152602001915050602060405180830381600087803b15156103df57600080fd5b6102c65a03f115156103f057600080fd5b5050506040518051905014151561040657600080fd5b60008173ffffffffffffffffffffffffffffffffffffffff1663ec4d88d7896000604051602001526040518263ffffffff167c0100000000000000000000000000000000000000000000000000000000028152600401808260001916600019168152602001915050602060405180830381600087803b151561048757600080fd5b6102c65a03f1151561049857600080fd5b505050604051805190501415156104ae57600080fd5b8073ffffffffffffffffffffffffffffffffffffffff16631a6a6e14338989896000604051602001526040518563ffffffff167c0100000000000000000000000000000000000000000000000000000000028152600401808573ffffffffffffffffffffffffffffffffffffffff1673ffffffffffffffffffffffffffffffffffffffff168152602001846000191660001916815260200183600019166000191681526020018260001916600019168152602001945050505050602060405180830381600087803b151561058157600080fd5b6102c65a03f1151561059257600080fd5b5050506040518051905093505050509392505050565b6000809054906101000a900473ffffffffffffffffffffffffffffffffffffffff1673ffffffffffffffffffffffffffffffffffffffff163373ffffffffffffffffffffffffffffffffffffffff1614151561060357600080fd5b600073ffffffffffffffffffffffffffffffffffffffff168173ffffffffffffffffffffffffffffffffffffffff161415151561063f57600080fd5b806000806101000a81548173ffffffffffffffffffffffffffffffffffffffff021916908373ffffffffffffffffffffffffffffffffffffffff160217905550505600a165627a7a7230582040e95ee6368b7bbbacdc661b7e3752c63901f763756209cf94b2e9a9c13c7c2d0029",
  "source": "pragma solidity ^0.4.19;\n\nimport '../Helpers/ManagerParent.sol';\nimport '../Dispatcher.sol';\nimport './UserDataBase.sol';\n\ncontract UserManager is ManagerParent {\n    function createUser (bytes32 _username, bytes32 _givenName, bytes32 _familyName) public returns(uint _newUserId) {\n        Dispatcher _dipatcher = Dispatcher(dispatcherAddress);\n\n        address _userDataBaseAddress = _dipatcher.getAddress(\"UserDataBase\");\n        UserDataBase _dataBase = UserDataBase(_userDataBaseAddress);\n\n        require(_dataBase.addresses(msg.sender) == 0);\n        require(_dataBase.usernames(_username) == 0);\n\n        return _dataBase.createUser(msg.sender, _username, _givenName, _familyName);\n    }\n} ",
  "sourcePath": "/home/mihai/Documents/UPT/licenta/pass_storage/contracts/Users/UserManager.sol",
  "compiler": {
    "name": "solc",
    "version": "0.4.19+commit.c4cbbb05.Linux.g++"
  },
  "schemaVersion": "3.4.0",
  "updatedAt": "2021-05-15T16:18:52.347Z",
  "devdoc": {
    "methods": {}
  },
  "userdoc": {
    "methods": {}
  }
}