{
  "contractName": "UserManager",
  "abi": [
    {
      "constant": true,
      "inputs": [],
      "name": "ownerAddress",
      "outputs": [
        {
          "name": "",
          "type": "address"
        }
      ],
      "payable": false,
      "stateMutability": "view",
      "type": "function"
    },
    {
      "constant": false,
      "inputs": [
        {
          "name": "_dispatcherAddress",
          "type": "address"
        }
      ],
      "name": "setDispatcherAddress",
      "outputs": [],
      "payable": false,
      "stateMutability": "nonpayable",
      "type": "function"
    },
    {
      "constant": false,
      "inputs": [
        {
          "name": "_newOwner",
          "type": "address"
        }
      ],
      "name": "setNewOwner",
      "outputs": [],
      "payable": false,
      "stateMutability": "nonpayable",
      "type": "function"
    },
    {
      "constant": false,
      "inputs": [
        {
          "name": "_username",
          "type": "string"
        },
        {
          "name": "_givenName",
          "type": "string"
        },
        {
          "name": "_familyName",
          "type": "string"
        }
      ],
      "name": "createUser",
      "outputs": [
        {
          "name": "_newUserId",
          "type": "uint256"
        }
      ],
      "payable": false,
      "stateMutability": "nonpayable",
      "type": "function"
    },
    {
      "constant": true,
      "inputs": [],
      "name": "getUsername",
      "outputs": [
        {
          "name": "",
          "type": "bytes32"
        }
      ],
      "payable": false,
      "stateMutability": "view",
      "type": "function"
    },
    {
      "constant": true,
      "inputs": [],
      "name": "getGivenName",
      "outputs": [
        {
          "name": "",
          "type": "bytes32"
        }
      ],
      "payable": false,
      "stateMutability": "view",
      "type": "function"
    },
    {
      "constant": true,
      "inputs": [],
      "name": "getFamilyName",
      "outputs": [
        {
          "name": "",
          "type": "bytes32"
        }
      ],
      "payable": false,
      "stateMutability": "view",
      "type": "function"
    }
  ],
  "bytecode": "0x6080604052336000806101000a81548173ffffffffffffffffffffffffffffffffffffffff021916908373ffffffffffffffffffffffffffffffffffffffff1602179055506110d5806100536000396000f300608060405260043610610083576000357c0100000000000000000000000000000000000000000000000000000000900463ffffffff16806316c3e3b31461008857806359ae069b146100bb578063681f3e6d146101c45780638f84aa09146101f7578063afaebf3e1461024e578063c515945b14610291578063f5a1f5b4146102c4575b600080fd5b34801561009457600080fd5b5061009d610307565b60405180826000191660001916815260200191505060405180910390f35b3480156100c757600080fd5b506101ae600480360381019080803590602001908201803590602001908080601f0160208091040260200160405190810160405280939291908181526020018383808284378201915050505050509192919290803590602001908201803590602001908080601f0160208091040260200160405190810160405280939291908181526020018383808284378201915050505050509192919290803590602001908201803590602001908080601f01602080910402602001604051908101604052809392919081815260200183838082843782019150505050505091929192905050506105af565b6040518082815260200191505060405180910390f35b3480156101d057600080fd5b506101d9610990565b60405180826000191660001916815260200191505060405180910390f35b34801561020357600080fd5b5061020c610c38565b604051808273ffffffffffffffffffffffffffffffffffffffff1673ffffffffffffffffffffffffffffffffffffffff16815260200191505060405180910390f35b34801561025a57600080fd5b5061028f600480360381019080803573ffffffffffffffffffffffffffffffffffffffff169060200190929190505050610c5d565b005b34801561029d57600080fd5b506102a6610cfc565b60405180826000191660001916815260200191505060405180910390f35b3480156102d057600080fd5b50610305600480360381019080803573ffffffffffffffffffffffffffffffffffffffff169060200190929190505050610fa4565b005b6000806000806000600160009054906101000a900473ffffffffffffffffffffffffffffffffffffffff1693508373ffffffffffffffffffffffffffffffffffffffff1663bf40fac16040518163ffffffff167c010000000000000000000000000000000000000000000000000000000002815260040180806020018281038252600c8152602001807f5573657244617461426173650000000000000000000000000000000000000000815250602001915050602060405180830381600087803b1580156103d457600080fd5b505af11580156103e8573d6000803e3d6000fd5b505050506040513d60208110156103fe57600080fd5b810190808051906020019092919050505092508291508173ffffffffffffffffffffffffffffffffffffffff166382d38954336040518263ffffffff167c0100000000000000000000000000000000000000000000000000000000028152600401808273ffffffffffffffffffffffffffffffffffffffff1673ffffffffffffffffffffffffffffffffffffffff168152602001915050602060405180830381600087803b1580156104af57600080fd5b505af11580156104c3573d6000803e3d6000fd5b505050506040513d60208110156104d957600080fd5b81019080805190602001909291905050509050600081141515156104fc57600080fd5b8173ffffffffffffffffffffffffffffffffffffffff166332eefe1a826040518263ffffffff167c010000000000000000000000000000000000000000000000000000000002815260040180828152602001915050602060405180830381600087803b15801561056b57600080fd5b505af115801561057f573d6000803e3d6000fd5b505050506040513d602081101561059557600080fd5b810190808051906020019092919050505094505050505090565b600080600080600160009054906101000a900473ffffffffffffffffffffffffffffffffffffffff1692508273ffffffffffffffffffffffffffffffffffffffff1663bf40fac16040518163ffffffff167c010000000000000000000000000000000000000000000000000000000002815260040180806020018281038252600c8152602001807f5573657244617461426173650000000000000000000000000000000000000000815250602001915050602060405180830381600087803b15801561067a57600080fd5b505af115801561068e573d6000803e3d6000fd5b505050506040513d60208110156106a457600080fd5b8101908080519060200190929190505050915081905060008173ffffffffffffffffffffffffffffffffffffffff166382d38954336040518263ffffffff167c0100000000000000000000000000000000000000000000000000000000028152600401808273ffffffffffffffffffffffffffffffffffffffff1673ffffffffffffffffffffffffffffffffffffffff168152602001915050602060405180830381600087803b15801561075757600080fd5b505af115801561076b573d6000803e3d6000fd5b505050506040513d602081101561078157600080fd5b810190808051906020019092919050505014151561079e57600080fd5b60008173ffffffffffffffffffffffffffffffffffffffff1663ec4d88d76107c58a61107e565b6040518263ffffffff167c0100000000000000000000000000000000000000000000000000000000028152600401808260001916600019168152602001915050602060405180830381600087803b15801561081f57600080fd5b505af1158015610833573d6000803e3d6000fd5b505050506040513d602081101561084957600080fd5b810190808051906020019092919050505014151561086657600080fd5b8073ffffffffffffffffffffffffffffffffffffffff16631a6a6e143361088c8a61107e565b6108958a61107e565b61089e8a61107e565b6040518563ffffffff167c0100000000000000000000000000000000000000000000000000000000028152600401808573ffffffffffffffffffffffffffffffffffffffff1673ffffffffffffffffffffffffffffffffffffffff168152602001846000191660001916815260200183600019166000191681526020018260001916600019168152602001945050505050602060405180830381600087803b15801561094957600080fd5b505af115801561095d573d6000803e3d6000fd5b505050506040513d602081101561097357600080fd5b810190808051906020019092919050505093505050509392505050565b6000806000806000600160009054906101000a900473ffffffffffffffffffffffffffffffffffffffff1693508373ffffffffffffffffffffffffffffffffffffffff1663bf40fac16040518163ffffffff167c010000000000000000000000000000000000000000000000000000000002815260040180806020018281038252600c8152602001807f5573657244617461426173650000000000000000000000000000000000000000815250602001915050602060405180830381600087803b158015610a5d57600080fd5b505af1158015610a71573d6000803e3d6000fd5b505050506040513d6020811015610a8757600080fd5b810190808051906020019092919050505092508291508173ffffffffffffffffffffffffffffffffffffffff166382d38954336040518263ffffffff167c0100000000000000000000000000000000000000000000000000000000028152600401808273ffffffffffffffffffffffffffffffffffffffff1673ffffffffffffffffffffffffffffffffffffffff168152602001915050602060405180830381600087803b158015610b3857600080fd5b505af1158015610b4c573d6000803e3d6000fd5b505050506040513d6020811015610b6257600080fd5b8101908080519060200190929190505050905060008114151515610b8557600080fd5b8173ffffffffffffffffffffffffffffffffffffffff1663f18d18cc826040518263ffffffff167c010000000000000000000000000000000000000000000000000000000002815260040180828152602001915050602060405180830381600087803b158015610bf457600080fd5b505af1158015610c08573d6000803e3d6000fd5b505050506040513d6020811015610c1e57600080fd5b810190808051906020019092919050505094505050505090565b6000809054906101000a900473ffffffffffffffffffffffffffffffffffffffff1681565b6000809054906101000a900473ffffffffffffffffffffffffffffffffffffffff1673ffffffffffffffffffffffffffffffffffffffff163373ffffffffffffffffffffffffffffffffffffffff16141515610cb857600080fd5b80600160006101000a81548173ffffffffffffffffffffffffffffffffffffffff021916908373ffffffffffffffffffffffffffffffffffffffff16021790555050565b6000806000806000600160009054906101000a900473ffffffffffffffffffffffffffffffffffffffff1693508373ffffffffffffffffffffffffffffffffffffffff1663bf40fac16040518163ffffffff167c010000000000000000000000000000000000000000000000000000000002815260040180806020018281038252600c8152602001807f5573657244617461426173650000000000000000000000000000000000000000815250602001915050602060405180830381600087803b158015610dc957600080fd5b505af1158015610ddd573d6000803e3d6000fd5b505050506040513d6020811015610df357600080fd5b810190808051906020019092919050505092508291508173ffffffffffffffffffffffffffffffffffffffff166382d38954336040518263ffffffff167c0100000000000000000000000000000000000000000000000000000000028152600401808273ffffffffffffffffffffffffffffffffffffffff1673ffffffffffffffffffffffffffffffffffffffff168152602001915050602060405180830381600087803b158015610ea457600080fd5b505af1158015610eb8573d6000803e3d6000fd5b505050506040513d6020811015610ece57600080fd5b8101908080519060200190929190505050905060008114151515610ef157600080fd5b8173ffffffffffffffffffffffffffffffffffffffff166364bd9953826040518263ffffffff167c010000000000000000000000000000000000000000000000000000000002815260040180828152602001915050602060405180830381600087803b158015610f6057600080fd5b505af1158015610f74573d6000803e3d6000fd5b505050506040513d6020811015610f8a57600080fd5b810190808051906020019092919050505094505050505090565b6000809054906101000a900473ffffffffffffffffffffffffffffffffffffffff1673ffffffffffffffffffffffffffffffffffffffff163373ffffffffffffffffffffffffffffffffffffffff16141515610fff57600080fd5b600073ffffffffffffffffffffffffffffffffffffffff168173ffffffffffffffffffffffffffffffffffffffff161415151561103b57600080fd5b806000806101000a81548173ffffffffffffffffffffffffffffffffffffffff021916908373ffffffffffffffffffffffffffffffffffffffff16021790555050565b6000606082905060008151141561109b57600060010291506110a3565b602083015191505b509190505600a165627a7a72305820078ab1c0507e75c43d15ff266e987440a4b4b683d8fd9fe84dd73c7b1ceb8f280029",
  "source": "pragma solidity ^0.4.23;\n\nimport '../Helpers/ManagerParent.sol';\nimport '../Dispatcher.sol';\nimport './UserDataBase.sol';\n\ncontract UserManager is ManagerParent {\n    function createUser (string _username, string _givenName, string _familyName) public returns(uint _newUserId) {\n        Dispatcher _dipatcher = Dispatcher(dispatcherAddress);\n\n        address _userDataBaseAddress = _dipatcher.getAddress(\"UserDataBase\");\n        UserDataBase _dataBase = UserDataBase(_userDataBaseAddress);\n\n        require(_dataBase.addresses(msg.sender) == 0);\n        require(_dataBase.usernames(super.stringToHex32(_username)) == 0);\n\n        return _dataBase.createUser(msg.sender, super.stringToHex32(_username), stringToHex32(_givenName), stringToHex32(_familyName));\n    }\n\n    function getUsername () public view returns(bytes32) {\n        Dispatcher _dipatcher = Dispatcher(dispatcherAddress);\n\n        address _userDataBaseAddress = _dipatcher.getAddress(\"UserDataBase\");\n        UserDataBase _userDataBase = UserDataBase(_userDataBaseAddress);\n        uint _userId = _userDataBase.addresses(msg.sender);\n\n        require(_userId != 0);\n\n        return _userDataBase.getUsername(_userId);\n    }\n\n    function getGivenName () public view returns (bytes32) {\n        Dispatcher _dipatcher = Dispatcher(dispatcherAddress);\n\n        address _userDataBaseAddress = _dipatcher.getAddress(\"UserDataBase\");\n        UserDataBase _userDataBase = UserDataBase(_userDataBaseAddress);\n        uint _userId = _userDataBase.addresses(msg.sender);\n\n        require(_userId != 0);\n\n        return _userDataBase.getGivenName(_userId);\n    }\n\n    function getFamilyName() public view returns (bytes32) {\n        Dispatcher _dipatcher = Dispatcher(dispatcherAddress);\n\n        address _userDataBaseAddress = _dipatcher.getAddress(\"UserDataBase\");\n        UserDataBase _userDataBase = UserDataBase(_userDataBaseAddress);\n        uint _userId = _userDataBase.addresses(msg.sender);\n\n        require(_userId != 0);\n\n        return _userDataBase.getFamilyName(_userId);\n    }\n} ",
  "sourcePath": "/home/mihai/Documents/UPT/licenta/pass_storage/contracts/Users/UserManager.sol",
  "compiler": {
    "name": "solc",
    "version": "0.4.23+commit.124ca40d.Linux.g++"
  },
  "schemaVersion": "3.4.0",
  "updatedAt": "2021-05-26T17:43:44.648Z",
  "devdoc": {
    "methods": {}
  },
  "userdoc": {
    "methods": {}
  }
}