{
  "contractName": "UserDataBase",
  "abi": [
    {
      "constant": false,
      "inputs": [
        {
          "name": "_managerAdresss",
          "type": "address"
        }
      ],
      "name": "setmanagerAdress",
      "outputs": [],
      "payable": false,
      "stateMutability": "nonpayable",
      "type": "function"
    },
    {
      "constant": true,
      "inputs": [
        {
          "name": "",
          "type": "address"
        }
      ],
      "name": "addresses",
      "outputs": [
        {
          "name": "",
          "type": "uint256"
        }
      ],
      "payable": false,
      "stateMutability": "view",
      "type": "function"
    },
    {
      "constant": true,
      "inputs": [],
      "name": "ownerAddress",
      "outputs": [
        {
          "name": "",
          "type": "address"
        }
      ],
      "payable": false,
      "stateMutability": "view",
      "type": "function"
    },
    {
      "constant": true,
      "inputs": [
        {
          "name": "",
          "type": "uint256"
        }
      ],
      "name": "profiles",
      "outputs": [
        {
          "name": "id",
          "type": "uint256"
        },
        {
          "name": "username",
          "type": "bytes32"
        },
        {
          "name": "givenName",
          "type": "bytes32"
        },
        {
          "name": "familyName",
          "type": "bytes32"
        }
      ],
      "payable": false,
      "stateMutability": "view",
      "type": "function"
    },
    {
      "constant": true,
      "inputs": [],
      "name": "managerAddress",
      "outputs": [
        {
          "name": "",
          "type": "address"
        }
      ],
      "payable": false,
      "stateMutability": "view",
      "type": "function"
    },
    {
      "constant": true,
      "inputs": [
        {
          "name": "",
          "type": "bytes32"
        }
      ],
      "name": "usernames",
      "outputs": [
        {
          "name": "",
          "type": "uint256"
        }
      ],
      "payable": false,
      "stateMutability": "view",
      "type": "function"
    },
    {
      "constant": false,
      "inputs": [
        {
          "name": "_newOwner",
          "type": "address"
        }
      ],
      "name": "setNewOwner",
      "outputs": [],
      "payable": false,
      "stateMutability": "nonpayable",
      "type": "function"
    },
    {
      "constant": false,
      "inputs": [
        {
          "name": "_address",
          "type": "address"
        },
        {
          "name": "_username",
          "type": "bytes32"
        },
        {
          "name": "_givenName",
          "type": "bytes32"
        },
        {
          "name": "_familyName",
          "type": "bytes32"
        }
      ],
      "name": "createUser",
      "outputs": [
        {
          "name": "_newUserId",
          "type": "uint256"
        }
      ],
      "payable": false,
      "stateMutability": "nonpayable",
      "type": "function"
    }
  ],
  "bytecode": "0x60606040526000600555341561001457600080fd5b6106c7806100236000396000f30060606040526004361061008e576000357c0100000000000000000000000000000000000000000000000000000000900463ffffffff1680631a6a6e1414610093578063255a75df1461010757806382d38954146101405780638f84aa091461018d578063c36fe3d6146101e2578063cf73a1bc14610246578063ec4d88d71461029b578063f5a1f5b4146102d6575b600080fd5b341561009e57600080fd5b6100f1600480803573ffffffffffffffffffffffffffffffffffffffff1690602001909190803560001916906020019091908035600019169060200190919080356000191690602001909190505061030f565b6040518082815260200191505060405180910390f35b341561011257600080fd5b61013e600480803573ffffffffffffffffffffffffffffffffffffffff16906020019091905050610476565b005b341561014b57600080fd5b610177600480803573ffffffffffffffffffffffffffffffffffffffff16906020019091905050610516565b6040518082815260200191505060405180910390f35b341561019857600080fd5b6101a061052e565b604051808273ffffffffffffffffffffffffffffffffffffffff1673ffffffffffffffffffffffffffffffffffffffff16815260200191505060405180910390f35b34156101ed57600080fd5b6102036004808035906020019091905050610553565b6040518085815260200184600019166000191681526020018360001916600019168152602001826000191660001916815260200194505050505060405180910390f35b341561025157600080fd5b610259610583565b604051808273ffffffffffffffffffffffffffffffffffffffff1673ffffffffffffffffffffffffffffffffffffffff16815260200191505060405180910390f35b34156102a657600080fd5b6102c06004808035600019169060200190919050506105a9565b6040518082815260200191505060405180910390f35b34156102e157600080fd5b61030d600480803573ffffffffffffffffffffffffffffffffffffffff169060200190919050506105c1565b005b6000600160009054906101000a900473ffffffffffffffffffffffffffffffffffffffff1673ffffffffffffffffffffffffffffffffffffffff163373ffffffffffffffffffffffffffffffffffffffff1614151561036d57600080fd5b60056000815480929190600101919050555060806040519081016040528060055481526020018560001916815260200184600019168152602001836000191681525060026000600554815260200190815260200160002060008201518160000155602082015181600101906000191690556040820151816002019060001916905560608201518160030190600019169055905050600554600360008773ffffffffffffffffffffffffffffffffffffffff1673ffffffffffffffffffffffffffffffffffffffff16815260200190815260200160002081905550600554600460008660001916600019168152602001908152602001600020819055506005549050949350505050565b600160009054906101000a900473ffffffffffffffffffffffffffffffffffffffff1673ffffffffffffffffffffffffffffffffffffffff163373ffffffffffffffffffffffffffffffffffffffff161415156104d257600080fd5b80600160006101000a81548173ffffffffffffffffffffffffffffffffffffffff021916908373ffffffffffffffffffffffffffffffffffffffff16021790555050565b60036020528060005260406000206000915090505481565b6000809054906101000a900473ffffffffffffffffffffffffffffffffffffffff1681565b60026020528060005260406000206000915090508060000154908060010154908060020154908060030154905084565b600160009054906101000a900473ffffffffffffffffffffffffffffffffffffffff1681565b60046020528060005260406000206000915090505481565b6000809054906101000a900473ffffffffffffffffffffffffffffffffffffffff1673ffffffffffffffffffffffffffffffffffffffff163373ffffffffffffffffffffffffffffffffffffffff1614151561061c57600080fd5b600073ffffffffffffffffffffffffffffffffffffffff168173ffffffffffffffffffffffffffffffffffffffff161415151561065857600080fd5b806000806101000a81548173ffffffffffffffffffffffffffffffffffffffff021916908373ffffffffffffffffffffffffffffffffffffffff160217905550505600a165627a7a72305820afd376ce1b81fed2a52748835d0cca80e80e7840739e7dc74ccc967a3c17406f0029",
  "source": "pragma solidity ^0.4.19;\n\nimport '../Helpers/DataBaseParent.sol';\n\ncontract UserDataBase is DataBaseParent {\n\n    mapping(uint => Profile) public profiles;\n    mapping (address => uint) public addresses;\n    mapping (bytes32 => uint) public usernames; \n\n    struct Profile {\n        uint id;\n        bytes32 username;\n        bytes32 givenName;\n        bytes32 familyName;\n    }\n\n    uint latestUserId = 0;\n\n    function createUser (address _address, bytes32 _username, bytes32 _givenName, bytes32 _familyName) public onlyManager returns(uint _newUserId) {\n        latestUserId++;\n        profiles[latestUserId] = Profile(\n            latestUserId, \n            _username,\n            _givenName,\n            _familyName\n        );\n\n        addresses[_address] = latestUserId;\n        usernames[_username] = latestUserId;\n\n        return latestUserId;\n    }\n}",
  "sourcePath": "/home/mihai/Documents/UPT/licenta/pass_storage/contracts/Users/UserDataBase.sol",
  "compiler": {
    "name": "solc",
    "version": "0.4.19+commit.c4cbbb05.Linux.g++"
  },
  "schemaVersion": "3.4.0",
  "updatedAt": "2021-05-15T17:33:22.419Z",
  "networkType": "ethereum",
  "devdoc": {
    "methods": {}
  },
  "userdoc": {
    "methods": {}
  }
}