{
  "contractName": "PasswordDataBase",
  "abi": [
    {
      "constant": false,
      "inputs": [
        {
          "name": "_managerAdresss",
          "type": "address"
        }
      ],
      "name": "setManagerAdress",
      "outputs": [],
      "payable": false,
      "stateMutability": "nonpayable",
      "type": "function"
    },
    {
      "constant": true,
      "inputs": [],
      "name": "ownerAddress",
      "outputs": [
        {
          "name": "",
          "type": "address"
        }
      ],
      "payable": false,
      "stateMutability": "view",
      "type": "function"
    },
    {
      "constant": true,
      "inputs": [],
      "name": "managerAddress",
      "outputs": [
        {
          "name": "",
          "type": "address"
        }
      ],
      "payable": false,
      "stateMutability": "view",
      "type": "function"
    },
    {
      "constant": false,
      "inputs": [
        {
          "name": "_newOwner",
          "type": "address"
        }
      ],
      "name": "setNewOwner",
      "outputs": [],
      "payable": false,
      "stateMutability": "nonpayable",
      "type": "function"
    },
    {
      "constant": false,
      "inputs": [
        {
          "name": "_userId",
          "type": "uint256"
        },
        {
          "name": "_passHash",
          "type": "string"
        }
      ],
      "name": "createPassword",
      "outputs": [
        {
          "name": "",
          "type": "uint256"
        }
      ],
      "payable": false,
      "stateMutability": "nonpayable",
      "type": "function"
    },
    {
      "constant": true,
      "inputs": [
        {
          "name": "_userId",
          "type": "uint256"
        }
      ],
      "name": "getPasswordIdsFromUser",
      "outputs": [
        {
          "name": "",
          "type": "uint256[]"
        }
      ],
      "payable": false,
      "stateMutability": "view",
      "type": "function"
    },
    {
      "constant": true,
      "inputs": [
        {
          "name": "_userId",
          "type": "uint256"
        },
        {
          "name": "_passId",
          "type": "uint256"
        }
      ],
      "name": "getPassword",
      "outputs": [
        {
          "name": "_passHash",
          "type": "string"
        }
      ],
      "payable": false,
      "stateMutability": "view",
      "type": "function"
    }
  ],
  "bytecode": "0x60806040526000600555336000806101000a81548173ffffffffffffffffffffffffffffffffffffffff021916908373ffffffffffffffffffffffffffffffffffffffff1602179055506109be806100586000396000f300608060405260043610610083576000357c0100000000000000000000000000000000000000000000000000000000900463ffffffff1680636b232a02146100885780637f7d33f5146101385780638f84aa091461017b578063a6174a1a146101d2578063aa3b433a14610254578063cf73a1bc146102db578063f5a1f5b414610332575b600080fd5b34801561009457600080fd5b506100bd6004803603810190808035906020019092919080359060200190929190505050610375565b6040518080602001828103825283818151815260200191508051906020019080838360005b838110156100fd5780820151818401526020810190506100e2565b50505050905090810190601f16801561012a5780820380516001836020036101000a031916815260200191505b509250505060405180910390f35b34801561014457600080fd5b50610179600480360381019080803573ffffffffffffffffffffffffffffffffffffffff169060200190929190505050610513565b005b34801561018757600080fd5b506101906105b2565b604051808273ffffffffffffffffffffffffffffffffffffffff1673ffffffffffffffffffffffffffffffffffffffff16815260200191505060405180910390f35b3480156101de57600080fd5b506101fd600480360381019080803590602001909291905050506105d7565b6040518080602001828103825283818151815260200191508051906020019060200280838360005b83811015610240578082015181840152602081019050610225565b505050509050019250505060405180910390f35b34801561026057600080fd5b506102c560048036038101908080359060200190929190803590602001908201803590602001908080601f016020809104026020016040519081016040528093929190818152602001838380828437820191505050505050919291929050505061069e565b6040518082815260200191505060405180910390f35b3480156102e757600080fd5b506102f06107ed565b604051808273ffffffffffffffffffffffffffffffffffffffff1673ffffffffffffffffffffffffffffffffffffffff16815260200191505060405180910390f35b34801561033e57600080fd5b50610373600480360381019080803573ffffffffffffffffffffffffffffffffffffffff169060200190929190505050610813565b005b6060600160009054906101000a900473ffffffffffffffffffffffffffffffffffffffff1673ffffffffffffffffffffffffffffffffffffffff163373ffffffffffffffffffffffffffffffffffffffff161415156103d357600080fd5b60026000838152602001908152602001600020600101548314156104aa57600260008381526020019081526020016000206002018054600181600116156101000203166002900480601f01602080910402602001604051908101604052809291908181526020018280546001816001161561010002031660029004801561049b5780601f106104705761010080835404028352916020019161049b565b820191906000526020600020905b81548152906001019060200180831161047e57829003601f168201915b5050505050905080905061050d565b606060405190810160405280603181526020017f6e696365207472792c20796f752063616e6e6f7420676574206f74686572277381526020017f2070656f706c652070617373776f72647300000000000000000000000000000081525090508090505b92915050565b6000809054906101000a900473ffffffffffffffffffffffffffffffffffffffff1673ffffffffffffffffffffffffffffffffffffffff163373ffffffffffffffffffffffffffffffffffffffff1614151561056e57600080fd5b80600160006101000a81548173ffffffffffffffffffffffffffffffffffffffff021916908373ffffffffffffffffffffffffffffffffffffffff16021790555050565b6000809054906101000a900473ffffffffffffffffffffffffffffffffffffffff1681565b6060600160009054906101000a900473ffffffffffffffffffffffffffffffffffffffff1673ffffffffffffffffffffffffffffffffffffffff163373ffffffffffffffffffffffffffffffffffffffff1614151561063557600080fd5b6004600083815260200190815260200160002080548060200260200160405190810160405280929190818152602001828054801561069257602002820191906000526020600020905b81548152602001906001019080831161067e575b50505050509050919050565b6000600160009054906101000a900473ffffffffffffffffffffffffffffffffffffffff1673ffffffffffffffffffffffffffffffffffffffff163373ffffffffffffffffffffffffffffffffffffffff161415156106fc57600080fd5b600560008154809291906001019190505550606060405190810160405280600554815260200184815260200183815250600260006005548152602001908152602001600020600082015181600001556020820151816001015560408201518160020190805190602001906107719291906108ed565b5090505060046000848152602001908152602001600020600554908060018154018082558091505090600182039060005260206000200160009091929091909150555060036005549080600181540180825580915050906001820390600052602060002001600090919290919091505550600554905092915050565b600160009054906101000a900473ffffffffffffffffffffffffffffffffffffffff1681565b6000809054906101000a900473ffffffffffffffffffffffffffffffffffffffff1673ffffffffffffffffffffffffffffffffffffffff163373ffffffffffffffffffffffffffffffffffffffff1614151561086e57600080fd5b600073ffffffffffffffffffffffffffffffffffffffff168173ffffffffffffffffffffffffffffffffffffffff16141515156108aa57600080fd5b806000806101000a81548173ffffffffffffffffffffffffffffffffffffffff021916908373ffffffffffffffffffffffffffffffffffffffff16021790555050565b828054600181600116156101000203166002900490600052602060002090601f016020900481019282601f1061092e57805160ff191683800117855561095c565b8280016001018555821561095c579182015b8281111561095b578251825591602001919060010190610940565b5b509050610969919061096d565b5090565b61098f91905b8082111561098b576000816000905550600101610973565b5090565b905600a165627a7a7230582047c5b3135fa1e8c33cd404b6f292a7657835aca1da56737cfedc46322bdb10ad0029",
  "source": "pragma solidity ^0.4.23;\n\nimport '../Helpers/DataBaseParent.sol';\n\ncontract PasswordDataBase is DataBaseParent {\n    mapping(uint => Password) private Passwords;\n    uint[] private passwordIds;\n    mapping(uint => uint[]) private userPasswordIds;\n\n    struct Password{\n        uint id;\n        uint userId;\n        string passHash;\n    }\n\n    uint latestPasswordId = 0;\n    \n    function createPassword (uint _userId, string _passHash) public onlyManager returns(uint){\n        latestPasswordId++;\n\n        Passwords[latestPasswordId] = Password(latestPasswordId, _userId, _passHash);\n        userPasswordIds[_userId].push(latestPasswordId);\n        passwordIds.push(latestPasswordId);\n\n        return latestPasswordId;\n    }\n\n    function getPasswordIdsFromUser (uint _userId) view public onlyManager returns(uint[]) { // retrieve all the passwords from a user\n        return userPasswordIds[_userId];\n    }\n\n    function getPassword (uint _userId, uint _passId) view public onlyManager returns(string memory _passHash) {\n        if (_userId == Passwords[_passId].userId){\n            _passHash = Passwords[_passId].passHash;\n            return _passHash;\n        }\n        _passHash = \"nice try, you cannot get other's people passwords\";    \n        return _passHash;\n    }\n}",
  "sourcePath": "/home/mihai/Documents/UPT/licenta/pass_storage/contracts/Passwords/PasswordDataBase.sol",
  "compiler": {
    "name": "solc",
    "version": "0.4.23+commit.124ca40d.Linux.g++"
  },
  "schemaVersion": "3.4.0",
  "updatedAt": "2021-05-25T17:24:01.387Z",
  "networkType": "ethereum",
  "devdoc": {
    "methods": {}
  },
  "userdoc": {
    "methods": {}
  }
}