{
  "contractName": "PasswordManager",
  "abi": [
    {
      "constant": true,
      "inputs": [],
      "name": "ownerAddress",
      "outputs": [
        {
          "name": "",
          "type": "address"
        }
      ],
      "payable": false,
      "stateMutability": "view",
      "type": "function"
    },
    {
      "constant": false,
      "inputs": [
        {
          "name": "_dispatcherAddress",
          "type": "address"
        }
      ],
      "name": "setDispatcherAddress",
      "outputs": [],
      "payable": false,
      "stateMutability": "nonpayable",
      "type": "function"
    },
    {
      "constant": false,
      "inputs": [
        {
          "name": "_newOwner",
          "type": "address"
        }
      ],
      "name": "setNewOwner",
      "outputs": [],
      "payable": false,
      "stateMutability": "nonpayable",
      "type": "function"
    },
    {
      "constant": false,
      "inputs": [
        {
          "name": "_passHash",
          "type": "string"
        },
        {
          "name": "usernameForPass",
          "type": "string"
        },
        {
          "name": "url",
          "type": "string"
        }
      ],
      "name": "createPassword",
      "outputs": [
        {
          "name": "",
          "type": "uint256"
        }
      ],
      "payable": false,
      "stateMutability": "nonpayable",
      "type": "function"
    },
    {
      "constant": true,
      "inputs": [],
      "name": "getPasswordIdsFromUser",
      "outputs": [
        {
          "name": "",
          "type": "uint256[]"
        }
      ],
      "payable": false,
      "stateMutability": "view",
      "type": "function"
    },
    {
      "constant": true,
      "inputs": [
        {
          "name": "_passId",
          "type": "uint256"
        }
      ],
      "name": "getPassword",
      "outputs": [
        {
          "name": "passHash",
          "type": "string"
        }
      ],
      "payable": false,
      "stateMutability": "view",
      "type": "function"
    },
    {
      "constant": true,
      "inputs": [
        {
          "name": "_passId",
          "type": "uint256"
        }
      ],
      "name": "getUsernameForPassword",
      "outputs": [
        {
          "name": "_usernameForPassword",
          "type": "string"
        }
      ],
      "payable": false,
      "stateMutability": "view",
      "type": "function"
    },
    {
      "constant": true,
      "inputs": [
        {
          "name": "_passId",
          "type": "uint256"
        }
      ],
      "name": "getUrl",
      "outputs": [
        {
          "name": "_url",
          "type": "string"
        }
      ],
      "payable": false,
      "stateMutability": "view",
      "type": "function"
    }
  ],
  "bytecode": "0x6080604052336000806101000a81548173ffffffffffffffffffffffffffffffffffffffff021916908373ffffffffffffffffffffffffffffffffffffffff160217905550611b2c806100536000396000f30060806040526004361061008e576000357c0100000000000000000000000000000000000000000000000000000000900463ffffffff16806378db448a1461009357806385604d891461019c5780638f84aa09146102425780638fe381dd14610299578063afaebf3e1461033f578063f38c6bb614610382578063f5a1f5b414610428578063f7cd22591461046b575b600080fd5b34801561009f57600080fd5b50610186600480360381019080803590602001908201803590602001908080601f0160208091040260200160405190810160405280939291908181526020018383808284378201915050505050509192919290803590602001908201803590602001908080601f0160208091040260200160405190810160405280939291908181526020018383808284378201915050505050509192919290803590602001908201803590602001908080601f01602080910402602001604051908101604052809392919081815260200183838082843782019150505050505091929192905050506104d7565b6040518082815260200191505060405180910390f35b3480156101a857600080fd5b506101c7600480360381019080803590602001909291905050506109af565b6040518080602001828103825283818151815260200191508051906020019080838360005b838110156102075780820151818401526020810190506101ec565b50505050905090810190601f1680156102345780820380516001836020036101000a031916815260200191505b509250505060405180910390f35b34801561024e57600080fd5b50610257610d9f565b604051808273ffffffffffffffffffffffffffffffffffffffff1673ffffffffffffffffffffffffffffffffffffffff16815260200191505060405180910390f35b3480156102a557600080fd5b506102c460048036038101908080359060200190929190505050610dc4565b6040518080602001828103825283818151815260200191508051906020019080838360005b838110156103045780820151818401526020810190506102e9565b50505050905090810190601f1680156103315780820380516001836020036101000a031916815260200191505b509250505060405180910390f35b34801561034b57600080fd5b50610380600480360381019080803573ffffffffffffffffffffffffffffffffffffffff1690602001909291905050506111b4565b005b34801561038e57600080fd5b506103ad60048036038101908080359060200190929190505050611253565b6040518080602001828103825283818151815260200191508051906020019080838360005b838110156103ed5780820151818401526020810190506103d2565b50505050905090810190601f16801561041a5780820380516001836020036101000a031916815260200191505b509250505060405180910390f35b34801561043457600080fd5b50610469600480360381019080803573ffffffffffffffffffffffffffffffffffffffff169060200190929190505050611643565b005b34801561047757600080fd5b5061048061171d565b6040518080602001828103825283818151815260200191508051906020019060200280838360005b838110156104c35780820151818401526020810190506104a8565b505050509050019250505060405180910390f35b6000806000806000806000600160009054906101000a900473ffffffffffffffffffffffffffffffffffffffff1695508573ffffffffffffffffffffffffffffffffffffffff1663bf40fac16040518163ffffffff167c010000000000000000000000000000000000000000000000000000000002815260040180806020018281038252600c8152602001807f5573657244617461426173650000000000000000000000000000000000000000815250602001915050602060405180830381600087803b1580156105a757600080fd5b505af11580156105bb573d6000803e3d6000fd5b505050506040513d60208110156105d157600080fd5b810190808051906020019092919050505094508493508373ffffffffffffffffffffffffffffffffffffffff166382d38954336040518263ffffffff167c0100000000000000000000000000000000000000000000000000000000028152600401808273ffffffffffffffffffffffffffffffffffffffff1673ffffffffffffffffffffffffffffffffffffffff168152602001915050602060405180830381600087803b15801561068257600080fd5b505af1158015610696573d6000803e3d6000fd5b505050506040513d60208110156106ac57600080fd5b81019080805190602001909291905050509250600083141515156106cf57600080fd5b8573ffffffffffffffffffffffffffffffffffffffff1663bf40fac16040518163ffffffff167c01000000000000000000000000000000000000000000000000000000000281526004018080602001828103825260108152602001807f50617373776f7264446174614261736500000000000000000000000000000000815250602001915050602060405180830381600087803b15801561076f57600080fd5b505af1158015610783573d6000803e3d6000fd5b505050506040513d602081101561079957600080fd5b810190808051906020019092919050505091508190508073ffffffffffffffffffffffffffffffffffffffff1663e612c28a848c8c8c6040518563ffffffff167c010000000000000000000000000000000000000000000000000000000002815260040180858152602001806020018060200180602001848103845287818151815260200191508051906020019080838360005b8381101561084857808201518184015260208101905061082d565b50505050905090810190601f1680156108755780820380516001836020036101000a031916815260200191505b50848103835286818151815260200191508051906020019080838360005b838110156108ae578082015181840152602081019050610893565b50505050905090810190601f1680156108db5780820380516001836020036101000a031916815260200191505b50848103825285818151815260200191508051906020019080838360005b838110156109145780820151818401526020810190506108f9565b50505050905090810190601f1680156109415780820380516001836020036101000a031916815260200191505b50975050505050505050602060405180830381600087803b15801561096557600080fd5b505af1158015610979573d6000803e3d6000fd5b505050506040513d602081101561098f57600080fd5b810190808051906020019092919050505096505050505050509392505050565b6060600080600080600080600160009054906101000a900473ffffffffffffffffffffffffffffffffffffffff1695508573ffffffffffffffffffffffffffffffffffffffff1663bf40fac16040518163ffffffff167c010000000000000000000000000000000000000000000000000000000002815260040180806020018281038252600c8152602001807f5573657244617461426173650000000000000000000000000000000000000000815250602001915050602060405180830381600087803b158015610a7f57600080fd5b505af1158015610a93573d6000803e3d6000fd5b505050506040513d6020811015610aa957600080fd5b810190808051906020019092919050505094508493508373ffffffffffffffffffffffffffffffffffffffff166382d38954336040518263ffffffff167c0100000000000000000000000000000000000000000000000000000000028152600401808273ffffffffffffffffffffffffffffffffffffffff1673ffffffffffffffffffffffffffffffffffffffff168152602001915050602060405180830381600087803b158015610b5a57600080fd5b505af1158015610b6e573d6000803e3d6000fd5b505050506040513d6020811015610b8457600080fd5b8101908080519060200190929190505050925060008314151515610ba757600080fd5b8573ffffffffffffffffffffffffffffffffffffffff1663bf40fac16040518163ffffffff167c01000000000000000000000000000000000000000000000000000000000281526004018080602001828103825260108152602001807f50617373776f7264446174614261736500000000000000000000000000000000815250602001915050602060405180830381600087803b158015610c4757600080fd5b505af1158015610c5b573d6000803e3d6000fd5b505050506040513d6020811015610c7157600080fd5b810190808051906020019092919050505091508190508073ffffffffffffffffffffffffffffffffffffffff166315ea5e26848a6040518363ffffffff167c01000000000000000000000000000000000000000000000000000000000281526004018083815260200182815260200192505050600060405180830381600087803b158015610cfe57600080fd5b505af1158015610d12573d6000803e3d6000fd5b505050506040513d6000823e3d601f19601f820116820180604052506020811015610d3c57600080fd5b810190808051640100000000811115610d5457600080fd5b82810190506020810184811115610d6a57600080fd5b8151856001820283011164010000000082111715610d8757600080fd5b50509291905050509650869650505050505050919050565b6000809054906101000a900473ffffffffffffffffffffffffffffffffffffffff1681565b6060600080600080600080600160009054906101000a900473ffffffffffffffffffffffffffffffffffffffff1695508573ffffffffffffffffffffffffffffffffffffffff1663bf40fac16040518163ffffffff167c010000000000000000000000000000000000000000000000000000000002815260040180806020018281038252600c8152602001807f5573657244617461426173650000000000000000000000000000000000000000815250602001915050602060405180830381600087803b158015610e9457600080fd5b505af1158015610ea8573d6000803e3d6000fd5b505050506040513d6020811015610ebe57600080fd5b810190808051906020019092919050505094508493508373ffffffffffffffffffffffffffffffffffffffff166382d38954336040518263ffffffff167c0100000000000000000000000000000000000000000000000000000000028152600401808273ffffffffffffffffffffffffffffffffffffffff1673ffffffffffffffffffffffffffffffffffffffff168152602001915050602060405180830381600087803b158015610f6f57600080fd5b505af1158015610f83573d6000803e3d6000fd5b505050506040513d6020811015610f9957600080fd5b8101908080519060200190929190505050925060008314151515610fbc57600080fd5b8573ffffffffffffffffffffffffffffffffffffffff1663bf40fac16040518163ffffffff167c01000000000000000000000000000000000000000000000000000000000281526004018080602001828103825260108152602001807f50617373776f7264446174614261736500000000000000000000000000000000815250602001915050602060405180830381600087803b15801561105c57600080fd5b505af1158015611070573d6000803e3d6000fd5b505050506040513d602081101561108657600080fd5b810190808051906020019092919050505091508190508073ffffffffffffffffffffffffffffffffffffffff166320c57cfb848a6040518363ffffffff167c01000000000000000000000000000000000000000000000000000000000281526004018083815260200182815260200192505050600060405180830381600087803b15801561111357600080fd5b505af1158015611127573d6000803e3d6000fd5b505050506040513d6000823e3d601f19601f82011682018060405250602081101561115157600080fd5b81019080805164010000000081111561116957600080fd5b8281019050602081018481111561117f57600080fd5b815185600182028301116401000000008211171561119c57600080fd5b50509291905050509650869650505050505050919050565b6000809054906101000a900473ffffffffffffffffffffffffffffffffffffffff1673ffffffffffffffffffffffffffffffffffffffff163373ffffffffffffffffffffffffffffffffffffffff1614151561120f57600080fd5b80600160006101000a81548173ffffffffffffffffffffffffffffffffffffffff021916908373ffffffffffffffffffffffffffffffffffffffff16021790555050565b6060600080600080600080600160009054906101000a900473ffffffffffffffffffffffffffffffffffffffff1695508573ffffffffffffffffffffffffffffffffffffffff1663bf40fac16040518163ffffffff167c010000000000000000000000000000000000000000000000000000000002815260040180806020018281038252600c8152602001807f5573657244617461426173650000000000000000000000000000000000000000815250602001915050602060405180830381600087803b15801561132357600080fd5b505af1158015611337573d6000803e3d6000fd5b505050506040513d602081101561134d57600080fd5b810190808051906020019092919050505094508493508373ffffffffffffffffffffffffffffffffffffffff166382d38954336040518263ffffffff167c0100000000000000000000000000000000000000000000000000000000028152600401808273ffffffffffffffffffffffffffffffffffffffff1673ffffffffffffffffffffffffffffffffffffffff168152602001915050602060405180830381600087803b1580156113fe57600080fd5b505af1158015611412573d6000803e3d6000fd5b505050506040513d602081101561142857600080fd5b810190808051906020019092919050505092506000831415151561144b57600080fd5b8573ffffffffffffffffffffffffffffffffffffffff1663bf40fac16040518163ffffffff167c01000000000000000000000000000000000000000000000000000000000281526004018080602001828103825260108152602001807f50617373776f7264446174614261736500000000000000000000000000000000815250602001915050602060405180830381600087803b1580156114eb57600080fd5b505af11580156114ff573d6000803e3d6000fd5b505050506040513d602081101561151557600080fd5b810190808051906020019092919050505091508190508073ffffffffffffffffffffffffffffffffffffffff16636b232a02848a6040518363ffffffff167c01000000000000000000000000000000000000000000000000000000000281526004018083815260200182815260200192505050600060405180830381600087803b1580156115a257600080fd5b505af11580156115b6573d6000803e3d6000fd5b505050506040513d6000823e3d601f19601f8201168201806040525060208110156115e057600080fd5b8101908080516401000000008111156115f857600080fd5b8281019050602081018481111561160e57600080fd5b815185600182028301116401000000008211171561162b57600080fd5b50509291905050509650869650505050505050919050565b6000809054906101000a900473ffffffffffffffffffffffffffffffffffffffff1673ffffffffffffffffffffffffffffffffffffffff163373ffffffffffffffffffffffffffffffffffffffff1614151561169e57600080fd5b600073ffffffffffffffffffffffffffffffffffffffff168173ffffffffffffffffffffffffffffffffffffffff16141515156116da57600080fd5b806000806101000a81548173ffffffffffffffffffffffffffffffffffffffff021916908373ffffffffffffffffffffffffffffffffffffffff16021790555050565b6060600080600080600080600160009054906101000a900473ffffffffffffffffffffffffffffffffffffffff1695508573ffffffffffffffffffffffffffffffffffffffff1663bf40fac16040518163ffffffff167c010000000000000000000000000000000000000000000000000000000002815260040180806020018281038252600c8152602001807f5573657244617461426173650000000000000000000000000000000000000000815250602001915050602060405180830381600087803b1580156117ed57600080fd5b505af1158015611801573d6000803e3d6000fd5b505050506040513d602081101561181757600080fd5b810190808051906020019092919050505094508493508373ffffffffffffffffffffffffffffffffffffffff166382d38954336040518263ffffffff167c0100000000000000000000000000000000000000000000000000000000028152600401808273ffffffffffffffffffffffffffffffffffffffff1673ffffffffffffffffffffffffffffffffffffffff168152602001915050602060405180830381600087803b1580156118c857600080fd5b505af11580156118dc573d6000803e3d6000fd5b505050506040513d60208110156118f257600080fd5b810190808051906020019092919050505092506000831415151561191557600080fd5b8573ffffffffffffffffffffffffffffffffffffffff1663bf40fac16040518163ffffffff167c01000000000000000000000000000000000000000000000000000000000281526004018080602001828103825260108152602001807f50617373776f7264446174614261736500000000000000000000000000000000815250602001915050602060405180830381600087803b1580156119b557600080fd5b505af11580156119c9573d6000803e3d6000fd5b505050506040513d60208110156119df57600080fd5b810190808051906020019092919050505091508190508073ffffffffffffffffffffffffffffffffffffffff1663a6174a1a846040518263ffffffff167c010000000000000000000000000000000000000000000000000000000002815260040180828152602001915050600060405180830381600087803b158015611a6457600080fd5b505af1158015611a78573d6000803e3d6000fd5b505050506040513d6000823e3d601f19601f820116820180604052506020811015611aa257600080fd5b810190808051640100000000811115611aba57600080fd5b82810190506020810184811115611ad057600080fd5b8151856020820283011164010000000082111715611aed57600080fd5b50509291905050509650505050505050905600a165627a7a72305820c5f784ff1fe1530c7ee440cbb829b05fee993943798354cfd8b748d823e03de90029",
  "source": "pragma solidity ^0.4.23;\n\nimport '../Helpers/ManagerParent.sol';\nimport '../Dispatcher.sol';\nimport '../Users/UserDataBase.sol';\nimport './PasswordDataBase.sol';\n\n\ncontract PasswordManager is ManagerParent {\n    function createPassword (string _passHash, string usernameForPass, string url) public returns(uint) {\n        Dispatcher _dipatcher = Dispatcher(dispatcherAddress);\n\n        address _userDataBaseAddress = _dipatcher.getAddress(\"UserDataBase\");\n        UserDataBase _userDataBase = UserDataBase(_userDataBaseAddress);\n        uint _userId = _userDataBase.addresses(msg.sender);\n\n        require(_userId != 0);\n\n        address _passwordDataBaseAddress = _dipatcher.getAddress(\"PasswordDataBase\");\n        PasswordDataBase _passwordDataBase = PasswordDataBase(_passwordDataBaseAddress);\n\n        return _passwordDataBase.createPassword(_userId, _passHash, usernameForPass, url);\n    }\n\n    function getPasswordIdsFromUser () public view returns(uint[]) {\n        Dispatcher _dipatcher = Dispatcher(dispatcherAddress);\n\n        address _userDataBaseAddress = _dipatcher.getAddress(\"UserDataBase\");\n        UserDataBase _userDataBase = UserDataBase(_userDataBaseAddress);\n        uint _userId = _userDataBase.addresses(msg.sender);\n\n        require(_userId != 0);\n\n        address _passwordDataBaseAddress = _dipatcher.getAddress(\"PasswordDataBase\");\n        PasswordDataBase _passwordDataBase = PasswordDataBase(_passwordDataBaseAddress);\n\n        return _passwordDataBase.getPasswordIdsFromUser(_userId);\n    }\n\n    function getPassword (uint _passId) public view returns (string memory passHash) {\n        Dispatcher _dipatcher = Dispatcher(dispatcherAddress);\n\n        address _userDataBaseAddress = _dipatcher.getAddress(\"UserDataBase\");\n        UserDataBase _userDataBase = UserDataBase(_userDataBaseAddress);\n        uint _userId = _userDataBase.addresses(msg.sender);\n\n        require(_userId != 0);\n\n        address _passwordDataBaseAddress = _dipatcher.getAddress(\"PasswordDataBase\");\n        PasswordDataBase _passwordDataBase = PasswordDataBase(_passwordDataBaseAddress);\n\n        passHash = _passwordDataBase.getPassword(_userId, _passId);\n        return passHash;\n    }\n\n    function getUsernameForPassword (uint _passId) public view returns (string memory _usernameForPassword) {\n        Dispatcher _dipatcher = Dispatcher(dispatcherAddress);\n\n        address _userDataBaseAddress = _dipatcher.getAddress(\"UserDataBase\");\n        UserDataBase _userDataBase = UserDataBase(_userDataBaseAddress);\n        uint _userId = _userDataBase.addresses(msg.sender);\n\n        require(_userId != 0);\n\n        address _passwordDataBaseAddress = _dipatcher.getAddress(\"PasswordDataBase\");\n        PasswordDataBase _passwordDataBase = PasswordDataBase(_passwordDataBaseAddress);\n\n        _usernameForPassword = _passwordDataBase.getUsernameForPassword(_userId, _passId);\n        return _usernameForPassword;\n    }\n\n    function getUrl (uint _passId) public view returns (string memory _url) {\n        Dispatcher _dipatcher = Dispatcher(dispatcherAddress);\n\n        address _userDataBaseAddress = _dipatcher.getAddress(\"UserDataBase\");\n        UserDataBase _userDataBase = UserDataBase(_userDataBaseAddress);\n        uint _userId = _userDataBase.addresses(msg.sender);\n\n        require(_userId != 0);\n\n        address _passwordDataBaseAddress = _dipatcher.getAddress(\"PasswordDataBase\");\n        PasswordDataBase _passwordDataBase = PasswordDataBase(_passwordDataBaseAddress);\n\n        _url = _passwordDataBase.getUrl(_userId, _passId);\n        return _url;\n    }\n}",
  "sourcePath": "/home/mihai/Documents/UPT/licenta/pass_storage/contracts/Passwords/PasswordManager.sol",
  "compiler": {
    "name": "solc",
    "version": "0.4.23+commit.124ca40d.Linux.g++"
  },
  "schemaVersion": "3.4.0",
  "updatedAt": "2021-05-28T13:26:36.090Z",
  "networkType": "ethereum",
  "devdoc": {
    "methods": {}
  },
  "userdoc": {
    "methods": {}
  }
}