{
  "contractName": "PasswordDataBase",
  "abi": [
    {
      "constant": false,
      "inputs": [
        {
          "name": "_managerAdresss",
          "type": "address"
        }
      ],
      "name": "setManagerAdress",
      "outputs": [],
      "payable": false,
      "stateMutability": "nonpayable",
      "type": "function"
    },
    {
      "constant": true,
      "inputs": [],
      "name": "ownerAddress",
      "outputs": [
        {
          "name": "",
          "type": "address"
        }
      ],
      "payable": false,
      "stateMutability": "view",
      "type": "function"
    },
    {
      "constant": true,
      "inputs": [],
      "name": "managerAddress",
      "outputs": [
        {
          "name": "",
          "type": "address"
        }
      ],
      "payable": false,
      "stateMutability": "view",
      "type": "function"
    },
    {
      "constant": false,
      "inputs": [
        {
          "name": "_newOwner",
          "type": "address"
        }
      ],
      "name": "setNewOwner",
      "outputs": [],
      "payable": false,
      "stateMutability": "nonpayable",
      "type": "function"
    },
    {
      "constant": false,
      "inputs": [
        {
          "name": "_userId",
          "type": "uint256"
        },
        {
          "name": "_passHash",
          "type": "string"
        },
        {
          "name": "usernameForPass",
          "type": "string"
        },
        {
          "name": "url",
          "type": "string"
        }
      ],
      "name": "createPassword",
      "outputs": [
        {
          "name": "",
          "type": "uint256"
        }
      ],
      "payable": false,
      "stateMutability": "nonpayable",
      "type": "function"
    },
    {
      "constant": true,
      "inputs": [
        {
          "name": "_userId",
          "type": "uint256"
        }
      ],
      "name": "getPasswordIdsFromUser",
      "outputs": [
        {
          "name": "",
          "type": "uint256[]"
        }
      ],
      "payable": false,
      "stateMutability": "view",
      "type": "function"
    },
    {
      "constant": true,
      "inputs": [
        {
          "name": "_userId",
          "type": "uint256"
        },
        {
          "name": "_passId",
          "type": "uint256"
        }
      ],
      "name": "getUsernameForPassword",
      "outputs": [
        {
          "name": "_usernameForPassword",
          "type": "string"
        }
      ],
      "payable": false,
      "stateMutability": "view",
      "type": "function"
    },
    {
      "constant": true,
      "inputs": [
        {
          "name": "_userId",
          "type": "uint256"
        },
        {
          "name": "_passId",
          "type": "uint256"
        }
      ],
      "name": "getUrl",
      "outputs": [
        {
          "name": "_url",
          "type": "string"
        }
      ],
      "payable": false,
      "stateMutability": "view",
      "type": "function"
    },
    {
      "constant": true,
      "inputs": [
        {
          "name": "_userId",
          "type": "uint256"
        },
        {
          "name": "_passId",
          "type": "uint256"
        }
      ],
      "name": "getPassword",
      "outputs": [
        {
          "name": "_passHash",
          "type": "string"
        }
      ],
      "payable": false,
      "stateMutability": "view",
      "type": "function"
    }
  ],
  "bytecode": "0x60806040526000600555336000806101000a81548173ffffffffffffffffffffffffffffffffffffffff021916908373ffffffffffffffffffffffffffffffffffffffff160217905550610f44806100586000396000f300608060405260043610610099576000357c0100000000000000000000000000000000000000000000000000000000900463ffffffff16806315ea5e261461009e57806320c57cfb1461014e5780636b232a02146101fe5780637f7d33f5146102ae5780638f84aa09146102f1578063a6174a1a14610348578063cf73a1bc146103ca578063e612c28a14610421578063f5a1f5b414610534575b600080fd5b3480156100aa57600080fd5b506100d36004803603810190808035906020019092919080359060200190929190505050610577565b6040518080602001828103825283818151815260200191508051906020019080838360005b838110156101135780820151818401526020810190506100f8565b50505050905090810190601f1680156101405780820380516001836020036101000a031916815260200191505b509250505060405180910390f35b34801561015a57600080fd5b506101836004803603810190808035906020019092919080359060200190929190505050610715565b6040518080602001828103825283818151815260200191508051906020019080838360005b838110156101c35780820151818401526020810190506101a8565b50505050905090810190601f1680156101f05780820380516001836020036101000a031916815260200191505b509250505060405180910390f35b34801561020a57600080fd5b5061023360048036038101908080359060200190929190803590602001909291905050506108b3565b6040518080602001828103825283818151815260200191508051906020019080838360005b83811015610273578082015181840152602081019050610258565b50505050905090810190601f1680156102a05780820380516001836020036101000a031916815260200191505b509250505060405180910390f35b3480156102ba57600080fd5b506102ef600480360381019080803573ffffffffffffffffffffffffffffffffffffffff169060200190929190505050610a51565b005b3480156102fd57600080fd5b50610306610af0565b604051808273ffffffffffffffffffffffffffffffffffffffff1673ffffffffffffffffffffffffffffffffffffffff16815260200191505060405180910390f35b34801561035457600080fd5b5061037360048036038101908080359060200190929190505050610b15565b6040518080602001828103825283818151815260200191508051906020019060200280838360005b838110156103b657808201518184015260208101905061039b565b505050509050019250505060405180910390f35b3480156103d657600080fd5b506103df610bdc565b604051808273ffffffffffffffffffffffffffffffffffffffff1673ffffffffffffffffffffffffffffffffffffffff16815260200191505060405180910390f35b34801561042d57600080fd5b5061051e60048036038101908080359060200190929190803590602001908201803590602001908080601f0160208091040260200160405190810160405280939291908181526020018383808284378201915050505050509192919290803590602001908201803590602001908080601f0160208091040260200160405190810160405280939291908181526020018383808284378201915050505050509192919290803590602001908201803590602001908080601f0160208091040260200160405190810160405280939291908181526020018383808284378201915050505050509192919290505050610c02565b6040518082815260200191505060405180910390f35b34801561054057600080fd5b50610575600480360381019080803573ffffffffffffffffffffffffffffffffffffffff169060200190929190505050610d99565b005b6060600160009054906101000a900473ffffffffffffffffffffffffffffffffffffffff1673ffffffffffffffffffffffffffffffffffffffff163373ffffffffffffffffffffffffffffffffffffffff161415156105d557600080fd5b60026000838152602001908152602001600020600101548314156106ac57600260008381526020019081526020016000206004018054600181600116156101000203166002900480601f01602080910402602001604051908101604052809291908181526020018280546001816001161561010002031660029004801561069d5780601f106106725761010080835404028352916020019161069d565b820191906000526020600020905b81548152906001019060200180831161068057829003601f168201915b5050505050905080905061070f565b606060405190810160405280602d81526020017f6e696365207472792c20796f752063616e6e6f7420676574206f74686572277381526020017f2070656f706c652075726c27730000000000000000000000000000000000000081525090508090505b92915050565b6060600160009054906101000a900473ffffffffffffffffffffffffffffffffffffffff1673ffffffffffffffffffffffffffffffffffffffff163373ffffffffffffffffffffffffffffffffffffffff1614151561077357600080fd5b600260008381526020019081526020016000206001015483141561084a57600260008381526020019081526020016000206003018054600181600116156101000203166002900480601f01602080910402602001604051908101604052809291908181526020018280546001816001161561010002031660029004801561083b5780601f106108105761010080835404028352916020019161083b565b820191906000526020600020905b81548152906001019060200180831161081e57829003601f168201915b505050505090508090506108ad565b606060405190810160405280603c81526020017f6e696365207472792c20796f752063616e6e6f7420676574206f74686572277381526020017f2070656f706c652070617373776f7264277320757365726e616d65730000000081525090508090505b92915050565b6060600160009054906101000a900473ffffffffffffffffffffffffffffffffffffffff1673ffffffffffffffffffffffffffffffffffffffff163373ffffffffffffffffffffffffffffffffffffffff1614151561091157600080fd5b60026000838152602001908152602001600020600101548314156109e857600260008381526020019081526020016000206002018054600181600116156101000203166002900480601f0160208091040260200160405190810160405280929190818152602001828054600181600116156101000203166002900480156109d95780601f106109ae576101008083540402835291602001916109d9565b820191906000526020600020905b8154815290600101906020018083116109bc57829003601f168201915b50505050509050809050610a4b565b606060405190810160405280603181526020017f6e696365207472792c20796f752063616e6e6f7420676574206f74686572277381526020017f2070656f706c652070617373776f72647300000000000000000000000000000081525090508090505b92915050565b6000809054906101000a900473ffffffffffffffffffffffffffffffffffffffff1673ffffffffffffffffffffffffffffffffffffffff163373ffffffffffffffffffffffffffffffffffffffff16141515610aac57600080fd5b80600160006101000a81548173ffffffffffffffffffffffffffffffffffffffff021916908373ffffffffffffffffffffffffffffffffffffffff16021790555050565b6000809054906101000a900473ffffffffffffffffffffffffffffffffffffffff1681565b6060600160009054906101000a900473ffffffffffffffffffffffffffffffffffffffff1673ffffffffffffffffffffffffffffffffffffffff163373ffffffffffffffffffffffffffffffffffffffff16141515610b7357600080fd5b60046000838152602001908152602001600020805480602002602001604051908101604052809291908181526020018280548015610bd057602002820191906000526020600020905b815481526020019060010190808311610bbc575b50505050509050919050565b600160009054906101000a900473ffffffffffffffffffffffffffffffffffffffff1681565b6000600160009054906101000a900473ffffffffffffffffffffffffffffffffffffffff1673ffffffffffffffffffffffffffffffffffffffff163373ffffffffffffffffffffffffffffffffffffffff16141515610c6057600080fd5b60056000815480929190600101919050555060a06040519081016040528060055481526020018681526020018581526020018481526020018381525060026000600554815260200190815260200160002060008201518160000155602082015181600101556040820151816002019080519060200190610ce1929190610e73565b506060820151816003019080519060200190610cfe929190610e73565b506080820151816004019080519060200190610d1b929190610e73565b50905050600460008681526020019081526020016000206005549080600181540180825580915050906001820390600052602060002001600090919290919091505550600360055490806001815401808255809150509060018203906000526020600020016000909192909190915055506005549050949350505050565b6000809054906101000a900473ffffffffffffffffffffffffffffffffffffffff1673ffffffffffffffffffffffffffffffffffffffff163373ffffffffffffffffffffffffffffffffffffffff16141515610df457600080fd5b600073ffffffffffffffffffffffffffffffffffffffff168173ffffffffffffffffffffffffffffffffffffffff1614151515610e3057600080fd5b806000806101000a81548173ffffffffffffffffffffffffffffffffffffffff021916908373ffffffffffffffffffffffffffffffffffffffff16021790555050565b828054600181600116156101000203166002900490600052602060002090601f016020900481019282601f10610eb457805160ff1916838001178555610ee2565b82800160010185558215610ee2579182015b82811115610ee1578251825591602001919060010190610ec6565b5b509050610eef9190610ef3565b5090565b610f1591905b80821115610f11576000816000905550600101610ef9565b5090565b905600a165627a7a72305820eb4bfd2e04af4e39fd0e96c08f0c26b58197a80b6c4989752b198468c54bc27c0029",
  "source": "pragma solidity ^0.4.23;\n\nimport '../Helpers/DataBaseParent.sol';\n\ncontract PasswordDataBase is DataBaseParent {\n    mapping(uint => Password) private Passwords;\n    uint[] private passwordIds;\n    mapping(uint => uint[]) private userPasswordIds;\n\n    struct Password{\n        uint id;\n        uint userId;\n        string passHash;\n        string usernameForPass;\n        string url;\n    }\n\n    uint latestPasswordId = 0;\n    \n    function createPassword (uint _userId, string _passHash, string usernameForPass, string url) public onlyManager returns(uint){\n        latestPasswordId++;\n\n        Passwords[latestPasswordId] = Password(latestPasswordId, _userId, _passHash, usernameForPass, url);\n        userPasswordIds[_userId].push(latestPasswordId);\n        passwordIds.push(latestPasswordId);\n\n        return latestPasswordId;\n    }\n\n    function getPasswordIdsFromUser (uint _userId) view public onlyManager returns(uint[]) { // retrieve all the passwords from a user\n        return userPasswordIds[_userId];\n    }\n\n    function getUsernameForPassword (uint _userId, uint _passId) view public onlyManager returns(string memory _usernameForPassword) {\n        if (_userId == Passwords[_passId].userId){\n            _usernameForPassword = Passwords[_passId].usernameForPass;\n            return _usernameForPassword;\n        }\n        _usernameForPassword = \"nice try, you cannot get other's people password's usernames\";\n        return _usernameForPassword;\n    }\n\n    function getUrl (uint _userId, uint _passId) view public onlyManager returns(string memory _url) {\n        if (_userId == Passwords[_passId].userId){\n            _url = Passwords[_passId].url;\n            return _url;\n        }\n        _url = \"nice try, you cannot get other's people url's\";\n        return _url;\n    }\n\n    function getPassword (uint _userId, uint _passId) view public onlyManager returns(string memory _passHash) {\n        if (_userId == Passwords[_passId].userId){\n            _passHash = Passwords[_passId].passHash;\n            return _passHash;\n        }\n        _passHash = \"nice try, you cannot get other's people passwords\";    \n        return _passHash;\n    }\n}",
  "sourcePath": "/home/mihai/Documents/UPT/licenta/pass_storage/contracts/Passwords/PasswordDataBase.sol",
  "compiler": {
    "name": "solc",
    "version": "0.4.23+commit.124ca40d.Linux.g++"
  },
  "schemaVersion": "3.4.0",
  "updatedAt": "2021-05-30T13:03:09.553Z",
  "networkType": "ethereum",
  "devdoc": {
    "methods": {}
  },
  "userdoc": {
    "methods": {}
  }
}