{
  "contractName": "UserManager",
  "abi": [
    {
      "constant": true,
      "inputs": [],
      "name": "ownerAddress",
      "outputs": [
        {
          "name": "",
          "type": "address"
        }
      ],
      "payable": false,
      "stateMutability": "view",
      "type": "function"
    },
    {
      "constant": false,
      "inputs": [
        {
          "name": "_dispatcherAddress",
          "type": "address"
        }
      ],
      "name": "setDispatcherAddress",
      "outputs": [],
      "payable": false,
      "stateMutability": "nonpayable",
      "type": "function"
    },
    {
      "constant": false,
      "inputs": [
        {
          "name": "_newOwner",
          "type": "address"
        }
      ],
      "name": "setNewOwner",
      "outputs": [],
      "payable": false,
      "stateMutability": "nonpayable",
      "type": "function"
    },
    {
      "constant": false,
      "inputs": [
        {
          "name": "_username",
          "type": "string"
        },
        {
          "name": "_givenName",
          "type": "string"
        },
        {
          "name": "_familyName",
          "type": "string"
        }
      ],
      "name": "createUser",
      "outputs": [
        {
          "name": "_newUserId",
          "type": "uint256"
        }
      ],
      "payable": false,
      "stateMutability": "nonpayable",
      "type": "function"
    },
    {
      "constant": true,
      "inputs": [],
      "name": "getUsername",
      "outputs": [
        {
          "name": "",
          "type": "bytes32"
        }
      ],
      "payable": false,
      "stateMutability": "view",
      "type": "function"
    },
    {
      "constant": true,
      "inputs": [],
      "name": "getGivenName",
      "outputs": [
        {
          "name": "",
          "type": "bytes32"
        }
      ],
      "payable": false,
      "stateMutability": "view",
      "type": "function"
    },
    {
      "constant": true,
      "inputs": [],
      "name": "getFamilyName",
      "outputs": [
        {
          "name": "",
          "type": "bytes32"
        }
      ],
      "payable": false,
      "stateMutability": "view",
      "type": "function"
    },
    {
      "constant": true,
      "inputs": [],
      "name": "checkUserExists",
      "outputs": [
        {
          "name": "",
          "type": "bool"
        }
      ],
      "payable": false,
      "stateMutability": "view",
      "type": "function"
    }
  ],
  "bytecode": "0x6080604052336000806101000a81548173ffffffffffffffffffffffffffffffffffffffff021916908373ffffffffffffffffffffffffffffffffffffffff16021790555061124b806100536000396000f30060806040526004361061008e576000357c0100000000000000000000000000000000000000000000000000000000900463ffffffff16806316c3e3b31461009357806359ae069b146100c6578063681f3e6d146101cf5780638f84aa0914610202578063afaebf3e14610259578063b98224d21461029c578063c515945b146102cb578063f5a1f5b4146102fe575b600080fd5b34801561009f57600080fd5b506100a8610341565b60405180826000191660001916815260200191505060405180910390f35b3480156100d257600080fd5b506101b9600480360381019080803590602001908201803590602001908080601f0160208091040260200160405190810160405280939291908181526020018383808284378201915050505050509192919290803590602001908201803590602001908080601f0160208091040260200160405190810160405280939291908181526020018383808284378201915050505050509192919290803590602001908201803590602001908080601f01602080910402602001604051908101604052809392919081815260200183838082843782019150505050505091929192905050506105e9565b6040518082815260200191505060405180910390f35b3480156101db57600080fd5b506101e4610902565b60405180826000191660001916815260200191505060405180910390f35b34801561020e57600080fd5b50610217610baa565b604051808273ffffffffffffffffffffffffffffffffffffffff1673ffffffffffffffffffffffffffffffffffffffff16815260200191505060405180910390f35b34801561026557600080fd5b5061029a600480360381019080803573ffffffffffffffffffffffffffffffffffffffff169060200190929190505050610bcf565b005b3480156102a857600080fd5b506102b1610c6e565b604051808215151515815260200191505060405180910390f35b3480156102d757600080fd5b506102e0610e72565b60405180826000191660001916815260200191505060405180910390f35b34801561030a57600080fd5b5061033f600480360381019080803573ffffffffffffffffffffffffffffffffffffffff16906020019092919050505061111a565b005b6000806000806000600160009054906101000a900473ffffffffffffffffffffffffffffffffffffffff1693508373ffffffffffffffffffffffffffffffffffffffff1663bf40fac16040518163ffffffff167c010000000000000000000000000000000000000000000000000000000002815260040180806020018281038252600c8152602001807f5573657244617461426173650000000000000000000000000000000000000000815250602001915050602060405180830381600087803b15801561040e57600080fd5b505af1158015610422573d6000803e3d6000fd5b505050506040513d602081101561043857600080fd5b810190808051906020019092919050505092508291508173ffffffffffffffffffffffffffffffffffffffff166382d38954336040518263ffffffff167c0100000000000000000000000000000000000000000000000000000000028152600401808273ffffffffffffffffffffffffffffffffffffffff1673ffffffffffffffffffffffffffffffffffffffff168152602001915050602060405180830381600087803b1580156104e957600080fd5b505af11580156104fd573d6000803e3d6000fd5b505050506040513d602081101561051357600080fd5b810190808051906020019092919050505090506000811415151561053657600080fd5b8173ffffffffffffffffffffffffffffffffffffffff166332eefe1a826040518263ffffffff167c010000000000000000000000000000000000000000000000000000000002815260040180828152602001915050602060405180830381600087803b1580156105a557600080fd5b505af11580156105b9573d6000803e3d6000fd5b505050506040513d60208110156105cf57600080fd5b810190808051906020019092919050505094505050505090565b600080600080600160009054906101000a900473ffffffffffffffffffffffffffffffffffffffff1692508273ffffffffffffffffffffffffffffffffffffffff1663bf40fac16040518163ffffffff167c010000000000000000000000000000000000000000000000000000000002815260040180806020018281038252600c8152602001807f5573657244617461426173650000000000000000000000000000000000000000815250602001915050602060405180830381600087803b1580156106b457600080fd5b505af11580156106c8573d6000803e3d6000fd5b505050506040513d60208110156106de57600080fd5b8101908080519060200190929190505050915081905060008173ffffffffffffffffffffffffffffffffffffffff166382d38954336040518263ffffffff167c0100000000000000000000000000000000000000000000000000000000028152600401808273ffffffffffffffffffffffffffffffffffffffff1673ffffffffffffffffffffffffffffffffffffffff168152602001915050602060405180830381600087803b15801561079157600080fd5b505af11580156107a5573d6000803e3d6000fd5b505050506040513d60208110156107bb57600080fd5b81019080805190602001909291905050501415156107d857600080fd5b8073ffffffffffffffffffffffffffffffffffffffff16631a6a6e14336107fe8a6111f4565b6108078a6111f4565b6108108a6111f4565b6040518563ffffffff167c0100000000000000000000000000000000000000000000000000000000028152600401808573ffffffffffffffffffffffffffffffffffffffff1673ffffffffffffffffffffffffffffffffffffffff168152602001846000191660001916815260200183600019166000191681526020018260001916600019168152602001945050505050602060405180830381600087803b1580156108bb57600080fd5b505af11580156108cf573d6000803e3d6000fd5b505050506040513d60208110156108e557600080fd5b810190808051906020019092919050505093505050509392505050565b6000806000806000600160009054906101000a900473ffffffffffffffffffffffffffffffffffffffff1693508373ffffffffffffffffffffffffffffffffffffffff1663bf40fac16040518163ffffffff167c010000000000000000000000000000000000000000000000000000000002815260040180806020018281038252600c8152602001807f5573657244617461426173650000000000000000000000000000000000000000815250602001915050602060405180830381600087803b1580156109cf57600080fd5b505af11580156109e3573d6000803e3d6000fd5b505050506040513d60208110156109f957600080fd5b810190808051906020019092919050505092508291508173ffffffffffffffffffffffffffffffffffffffff166382d38954336040518263ffffffff167c0100000000000000000000000000000000000000000000000000000000028152600401808273ffffffffffffffffffffffffffffffffffffffff1673ffffffffffffffffffffffffffffffffffffffff168152602001915050602060405180830381600087803b158015610aaa57600080fd5b505af1158015610abe573d6000803e3d6000fd5b505050506040513d6020811015610ad457600080fd5b8101908080519060200190929190505050905060008114151515610af757600080fd5b8173ffffffffffffffffffffffffffffffffffffffff1663f18d18cc826040518263ffffffff167c010000000000000000000000000000000000000000000000000000000002815260040180828152602001915050602060405180830381600087803b158015610b6657600080fd5b505af1158015610b7a573d6000803e3d6000fd5b505050506040513d6020811015610b9057600080fd5b810190808051906020019092919050505094505050505090565b6000809054906101000a900473ffffffffffffffffffffffffffffffffffffffff1681565b6000809054906101000a900473ffffffffffffffffffffffffffffffffffffffff1673ffffffffffffffffffffffffffffffffffffffff163373ffffffffffffffffffffffffffffffffffffffff16141515610c2a57600080fd5b80600160006101000a81548173ffffffffffffffffffffffffffffffffffffffff021916908373ffffffffffffffffffffffffffffffffffffffff16021790555050565b6000806000806000600160009054906101000a900473ffffffffffffffffffffffffffffffffffffffff1693508373ffffffffffffffffffffffffffffffffffffffff1663bf40fac16040518163ffffffff167c010000000000000000000000000000000000000000000000000000000002815260040180806020018281038252600c8152602001807f5573657244617461426173650000000000000000000000000000000000000000815250602001915050602060405180830381600087803b158015610d3b57600080fd5b505af1158015610d4f573d6000803e3d6000fd5b505050506040513d6020811015610d6557600080fd5b810190808051906020019092919050505092508291508173ffffffffffffffffffffffffffffffffffffffff166382d38954336040518263ffffffff167c0100000000000000000000000000000000000000000000000000000000028152600401808273ffffffffffffffffffffffffffffffffffffffff1673ffffffffffffffffffffffffffffffffffffffff168152602001915050602060405180830381600087803b158015610e1657600080fd5b505af1158015610e2a573d6000803e3d6000fd5b505050506040513d6020811015610e4057600080fd5b81019080805190602001909291905050509050600081141515610e665760019450610e6b565b600094505b5050505090565b6000806000806000600160009054906101000a900473ffffffffffffffffffffffffffffffffffffffff1693508373ffffffffffffffffffffffffffffffffffffffff1663bf40fac16040518163ffffffff167c010000000000000000000000000000000000000000000000000000000002815260040180806020018281038252600c8152602001807f5573657244617461426173650000000000000000000000000000000000000000815250602001915050602060405180830381600087803b158015610f3f57600080fd5b505af1158015610f53573d6000803e3d6000fd5b505050506040513d6020811015610f6957600080fd5b810190808051906020019092919050505092508291508173ffffffffffffffffffffffffffffffffffffffff166382d38954336040518263ffffffff167c0100000000000000000000000000000000000000000000000000000000028152600401808273ffffffffffffffffffffffffffffffffffffffff1673ffffffffffffffffffffffffffffffffffffffff168152602001915050602060405180830381600087803b15801561101a57600080fd5b505af115801561102e573d6000803e3d6000fd5b505050506040513d602081101561104457600080fd5b810190808051906020019092919050505090506000811415151561106757600080fd5b8173ffffffffffffffffffffffffffffffffffffffff166364bd9953826040518263ffffffff167c010000000000000000000000000000000000000000000000000000000002815260040180828152602001915050602060405180830381600087803b1580156110d657600080fd5b505af11580156110ea573d6000803e3d6000fd5b505050506040513d602081101561110057600080fd5b810190808051906020019092919050505094505050505090565b6000809054906101000a900473ffffffffffffffffffffffffffffffffffffffff1673ffffffffffffffffffffffffffffffffffffffff163373ffffffffffffffffffffffffffffffffffffffff1614151561117557600080fd5b600073ffffffffffffffffffffffffffffffffffffffff168173ffffffffffffffffffffffffffffffffffffffff16141515156111b157600080fd5b806000806101000a81548173ffffffffffffffffffffffffffffffffffffffff021916908373ffffffffffffffffffffffffffffffffffffffff16021790555050565b600060608290506000815114156112115760006001029150611219565b602083015191505b509190505600a165627a7a72305820a4cd9cf10840c7d8dc451d789fefc943697570facc76bf10453ab37507f613550029",
  "source": "pragma solidity ^0.4.23;\n\nimport '../Helpers/ManagerParent.sol';\nimport '../Dispatcher.sol';\nimport './UserDataBase.sol';\n\ncontract UserManager is ManagerParent {\n    function createUser (string _username, string _givenName, string _familyName) public returns(uint _newUserId) {\n        Dispatcher _dipatcher = Dispatcher(dispatcherAddress);\n\n        address _userDataBaseAddress = _dipatcher.getAddress(\"UserDataBase\");\n        UserDataBase _dataBase = UserDataBase(_userDataBaseAddress);\n\n        require(_dataBase.addresses(msg.sender) == 0);\n        // require(_dataBase.usernames(super.stringToHex32(_username)) == 0);\n\n        return _dataBase.createUser(msg.sender, super.stringToHex32(_username), stringToHex32(_givenName), stringToHex32(_familyName));\n    }\n\n    function getUsername () public view returns(bytes32) {\n        Dispatcher _dipatcher = Dispatcher(dispatcherAddress);\n\n        address _userDataBaseAddress = _dipatcher.getAddress(\"UserDataBase\");\n        UserDataBase _userDataBase = UserDataBase(_userDataBaseAddress);\n        uint _userId = _userDataBase.addresses(msg.sender);\n\n        require(_userId != 0);\n\n        return _userDataBase.getUsername(_userId);\n    }\n\n    function getGivenName () public view returns (bytes32) {\n        Dispatcher _dipatcher = Dispatcher(dispatcherAddress);\n\n        address _userDataBaseAddress = _dipatcher.getAddress(\"UserDataBase\");\n        UserDataBase _userDataBase = UserDataBase(_userDataBaseAddress);\n        uint _userId = _userDataBase.addresses(msg.sender);\n\n        require(_userId != 0);\n\n        return _userDataBase.getGivenName(_userId);\n    }\n\n    function getFamilyName() public view returns (bytes32) {\n        Dispatcher _dipatcher = Dispatcher(dispatcherAddress);\n\n        address _userDataBaseAddress = _dipatcher.getAddress(\"UserDataBase\");\n        UserDataBase _userDataBase = UserDataBase(_userDataBaseAddress);\n        uint _userId = _userDataBase.addresses(msg.sender);\n\n        require(_userId != 0);\n\n        return _userDataBase.getFamilyName(_userId);\n    }\n\n    function checkUserExists() public view returns (bool) {\n        Dispatcher _dipatcher = Dispatcher(dispatcherAddress);\n\n        address _userDataBaseAddress = _dipatcher.getAddress(\"UserDataBase\");\n        UserDataBase _userDataBase = UserDataBase(_userDataBaseAddress);\n        uint _userId = _userDataBase.addresses(msg.sender);\n\n        if (_userId != 0) {\n            return true;\n        }\n        return false;\n    }\n} ",
  "sourcePath": "/home/mihai/Documents/UPT/licenta/pass_storage/contracts/Users/UserManager.sol",
  "compiler": {
    "name": "solc",
    "version": "0.4.23+commit.124ca40d.Linux.g++"
  },
  "schemaVersion": "3.4.0",
  "updatedAt": "2021-06-02T14:34:50.093Z",
  "networkType": "ethereum",
  "devdoc": {
    "methods": {}
  },
  "userdoc": {
    "methods": {}
  }
}