{
  "contractName": "UserDataBase",
  "abi": [
    {
      "constant": false,
      "inputs": [
        {
          "name": "_managerAdresss",
          "type": "address"
        }
      ],
      "name": "setManagerAdress",
      "outputs": [],
      "payable": false,
      "stateMutability": "nonpayable",
      "type": "function"
    },
    {
      "constant": true,
      "inputs": [
        {
          "name": "",
          "type": "address"
        }
      ],
      "name": "addresses",
      "outputs": [
        {
          "name": "",
          "type": "uint256"
        }
      ],
      "payable": false,
      "stateMutability": "view",
      "type": "function"
    },
    {
      "constant": true,
      "inputs": [],
      "name": "ownerAddress",
      "outputs": [
        {
          "name": "",
          "type": "address"
        }
      ],
      "payable": false,
      "stateMutability": "view",
      "type": "function"
    },
    {
      "constant": true,
      "inputs": [],
      "name": "managerAddress",
      "outputs": [
        {
          "name": "",
          "type": "address"
        }
      ],
      "payable": false,
      "stateMutability": "view",
      "type": "function"
    },
    {
      "constant": false,
      "inputs": [
        {
          "name": "_newOwner",
          "type": "address"
        }
      ],
      "name": "setNewOwner",
      "outputs": [],
      "payable": false,
      "stateMutability": "nonpayable",
      "type": "function"
    },
    {
      "constant": false,
      "inputs": [
        {
          "name": "_address",
          "type": "address"
        },
        {
          "name": "_username",
          "type": "bytes32"
        },
        {
          "name": "_givenName",
          "type": "bytes32"
        },
        {
          "name": "_familyName",
          "type": "bytes32"
        }
      ],
      "name": "createUser",
      "outputs": [
        {
          "name": "_newUserId",
          "type": "uint256"
        }
      ],
      "payable": false,
      "stateMutability": "nonpayable",
      "type": "function"
    },
    {
      "constant": true,
      "inputs": [
        {
          "name": "userId",
          "type": "uint256"
        }
      ],
      "name": "getUsername",
      "outputs": [
        {
          "name": "",
          "type": "bytes32"
        }
      ],
      "payable": false,
      "stateMutability": "view",
      "type": "function"
    },
    {
      "constant": true,
      "inputs": [
        {
          "name": "userId",
          "type": "uint256"
        }
      ],
      "name": "getGivenName",
      "outputs": [
        {
          "name": "",
          "type": "bytes32"
        }
      ],
      "payable": false,
      "stateMutability": "view",
      "type": "function"
    },
    {
      "constant": true,
      "inputs": [
        {
          "name": "userId",
          "type": "uint256"
        }
      ],
      "name": "getFamilyName",
      "outputs": [
        {
          "name": "",
          "type": "bytes32"
        }
      ],
      "payable": false,
      "stateMutability": "view",
      "type": "function"
    }
  ],
  "bytecode": "0x60806040526000600555336000806101000a81548173ffffffffffffffffffffffffffffffffffffffff021916908373ffffffffffffffffffffffffffffffffffffffff160217905550610868806100586000396000f300608060405260043610610099576000357c0100000000000000000000000000000000000000000000000000000000900463ffffffff1680631a6a6e141461009e57806332eefe1a1461011f57806364bd9953146101685780637f7d33f5146101b157806382d38954146101f45780638f84aa091461024b578063cf73a1bc146102a2578063f18d18cc146102f9578063f5a1f5b414610342575b600080fd5b3480156100aa57600080fd5b50610109600480360381019080803573ffffffffffffffffffffffffffffffffffffffff169060200190929190803560001916906020019092919080356000191690602001909291908035600019169060200190929190505050610385565b6040518082815260200191505060405180910390f35b34801561012b57600080fd5b5061014a600480360381019080803590602001909291905050506104ec565b60405180826000191660001916815260200191505060405180910390f35b34801561017457600080fd5b5061019360048036038101908080359060200190929190505050610568565b60405180826000191660001916815260200191505060405180910390f35b3480156101bd57600080fd5b506101f2600480360381019080803573ffffffffffffffffffffffffffffffffffffffff1690602001909291905050506105e4565b005b34801561020057600080fd5b50610235600480360381019080803573ffffffffffffffffffffffffffffffffffffffff169060200190929190505050610683565b6040518082815260200191505060405180910390f35b34801561025757600080fd5b5061026061069b565b604051808273ffffffffffffffffffffffffffffffffffffffff1673ffffffffffffffffffffffffffffffffffffffff16815260200191505060405180910390f35b3480156102ae57600080fd5b506102b76106c0565b604051808273ffffffffffffffffffffffffffffffffffffffff1673ffffffffffffffffffffffffffffffffffffffff16815260200191505060405180910390f35b34801561030557600080fd5b50610324600480360381019080803590602001909291905050506106e6565b60405180826000191660001916815260200191505060405180910390f35b34801561034e57600080fd5b50610383600480360381019080803573ffffffffffffffffffffffffffffffffffffffff169060200190929190505050610762565b005b6000600160009054906101000a900473ffffffffffffffffffffffffffffffffffffffff1673ffffffffffffffffffffffffffffffffffffffff163373ffffffffffffffffffffffffffffffffffffffff161415156103e357600080fd5b60056000815480929190600101919050555060806040519081016040528060055481526020018560001916815260200184600019168152602001836000191681525060026000600554815260200190815260200160002060008201518160000155602082015181600101906000191690556040820151816002019060001916905560608201518160030190600019169055905050600554600360008773ffffffffffffffffffffffffffffffffffffffff1673ffffffffffffffffffffffffffffffffffffffff16815260200190815260200160002081905550600554600460008660001916600019168152602001908152602001600020819055506005549050949350505050565b6000600160009054906101000a900473ffffffffffffffffffffffffffffffffffffffff1673ffffffffffffffffffffffffffffffffffffffff163373ffffffffffffffffffffffffffffffffffffffff1614151561054a57600080fd5b60026000838152602001908152602001600020600301549050919050565b6000600160009054906101000a900473ffffffffffffffffffffffffffffffffffffffff1673ffffffffffffffffffffffffffffffffffffffff163373ffffffffffffffffffffffffffffffffffffffff161415156105c657600080fd5b60026000838152602001908152602001600020600201549050919050565b6000809054906101000a900473ffffffffffffffffffffffffffffffffffffffff1673ffffffffffffffffffffffffffffffffffffffff163373ffffffffffffffffffffffffffffffffffffffff1614151561063f57600080fd5b80600160006101000a81548173ffffffffffffffffffffffffffffffffffffffff021916908373ffffffffffffffffffffffffffffffffffffffff16021790555050565b60036020528060005260406000206000915090505481565b6000809054906101000a900473ffffffffffffffffffffffffffffffffffffffff1681565b600160009054906101000a900473ffffffffffffffffffffffffffffffffffffffff1681565b6000600160009054906101000a900473ffffffffffffffffffffffffffffffffffffffff1673ffffffffffffffffffffffffffffffffffffffff163373ffffffffffffffffffffffffffffffffffffffff1614151561074457600080fd5b60026000838152602001908152602001600020600101549050919050565b6000809054906101000a900473ffffffffffffffffffffffffffffffffffffffff1673ffffffffffffffffffffffffffffffffffffffff163373ffffffffffffffffffffffffffffffffffffffff161415156107bd57600080fd5b600073ffffffffffffffffffffffffffffffffffffffff168173ffffffffffffffffffffffffffffffffffffffff16141515156107f957600080fd5b806000806101000a81548173ffffffffffffffffffffffffffffffffffffffff021916908373ffffffffffffffffffffffffffffffffffffffff160217905550505600a165627a7a72305820278ea11e49f104ab11ab1b05437dc7f9d77761481ff3f86df6e9aed725f016410029",
  "source": "pragma solidity ^0.4.23;\n\nimport '../Helpers/DataBaseParent.sol';\n\ncontract UserDataBase is DataBaseParent {\n\n    mapping(uint => Profile) private profiles;\n    mapping (address => uint) public addresses;\n    mapping (bytes32 => uint) private usernames; \n\n    struct Profile {\n        uint id;\n        bytes32 username;\n        bytes32 givenName;\n        bytes32 familyName;\n    }\n\n    uint latestUserId = 0;\n\n    function createUser (address _address, bytes32 _username, bytes32 _givenName, bytes32 _familyName) public onlyManager returns(uint _newUserId) {\n        latestUserId++;\n        profiles[latestUserId] = Profile(\n            latestUserId, \n            _username,\n            _givenName,\n            _familyName\n        );\n\n        addresses[_address] = latestUserId;\n        usernames[_username] = latestUserId;\n\n        return latestUserId;\n    }\n\n    function getUsername(uint userId) public view onlyManager returns (bytes32) {\n        return profiles[userId].username;\n    }\n\n    function getGivenName(uint userId) public view onlyManager returns (bytes32) {\n        return profiles[userId].givenName;\n    }\n\n    function getFamilyName(uint userId) public view onlyManager returns (bytes32) {\n        return profiles[userId].familyName;\n    }\n}",
  "sourcePath": "/home/mihai/Documents/UPT/licenta/pass_storage/contracts/Users/UserDataBase.sol",
  "compiler": {
    "name": "solc",
    "version": "0.4.23+commit.124ca40d.Linux.g++"
  },
  "schemaVersion": "3.4.0",
  "updatedAt": "2021-05-28T18:20:34.768Z",
  "networkType": "ethereum",
  "devdoc": {
    "methods": {}
  },
  "userdoc": {
    "methods": {}
  }
}