{
  "contractName": "UserDataBase",
  "abi": [
    {
      "constant": false,
      "inputs": [
        {
          "name": "_managerAdresss",
          "type": "address"
        }
      ],
      "name": "setManagerAdress",
      "outputs": [],
      "payable": false,
      "stateMutability": "nonpayable",
      "type": "function"
    },
    {
      "constant": true,
      "inputs": [
        {
          "name": "",
          "type": "address"
        }
      ],
      "name": "addresses",
      "outputs": [
        {
          "name": "",
          "type": "uint256"
        }
      ],
      "payable": false,
      "stateMutability": "view",
      "type": "function"
    },
    {
      "constant": true,
      "inputs": [],
      "name": "ownerAddress",
      "outputs": [
        {
          "name": "",
          "type": "address"
        }
      ],
      "payable": false,
      "stateMutability": "view",
      "type": "function"
    },
    {
      "constant": true,
      "inputs": [
        {
          "name": "",
          "type": "uint256"
        }
      ],
      "name": "profiles",
      "outputs": [
        {
          "name": "id",
          "type": "uint256"
        },
        {
          "name": "username",
          "type": "bytes32"
        },
        {
          "name": "givenName",
          "type": "bytes32"
        },
        {
          "name": "familyName",
          "type": "bytes32"
        }
      ],
      "payable": false,
      "stateMutability": "view",
      "type": "function"
    },
    {
      "constant": true,
      "inputs": [],
      "name": "managerAddress",
      "outputs": [
        {
          "name": "",
          "type": "address"
        }
      ],
      "payable": false,
      "stateMutability": "view",
      "type": "function"
    },
    {
      "constant": true,
      "inputs": [
        {
          "name": "",
          "type": "bytes32"
        }
      ],
      "name": "usernames",
      "outputs": [
        {
          "name": "",
          "type": "uint256"
        }
      ],
      "payable": false,
      "stateMutability": "view",
      "type": "function"
    },
    {
      "constant": false,
      "inputs": [
        {
          "name": "_newOwner",
          "type": "address"
        }
      ],
      "name": "setNewOwner",
      "outputs": [],
      "payable": false,
      "stateMutability": "nonpayable",
      "type": "function"
    },
    {
      "constant": false,
      "inputs": [
        {
          "name": "_address",
          "type": "address"
        },
        {
          "name": "_username",
          "type": "bytes32"
        },
        {
          "name": "_givenName",
          "type": "bytes32"
        },
        {
          "name": "_familyName",
          "type": "bytes32"
        }
      ],
      "name": "createUser",
      "outputs": [
        {
          "name": "_newUserId",
          "type": "uint256"
        }
      ],
      "payable": false,
      "stateMutability": "nonpayable",
      "type": "function"
    }
  ],
  "bytecode": "0x60806040526000600555336000806101000a81548173ffffffffffffffffffffffffffffffffffffffff021916908373ffffffffffffffffffffffffffffffffffffffff160217905550610709806100586000396000f30060806040526004361061008e576000357c0100000000000000000000000000000000000000000000000000000000900463ffffffff1680631a6a6e14146100935780637f7d33f51461011457806382d38954146101575780638f84aa09146101ae578063c36fe3d614610205578063cf73a1bc14610273578063ec4d88d7146102ca578063f5a1f5b41461030f575b600080fd5b34801561009f57600080fd5b506100fe600480360381019080803573ffffffffffffffffffffffffffffffffffffffff169060200190929190803560001916906020019092919080356000191690602001909291908035600019169060200190929190505050610352565b6040518082815260200191505060405180910390f35b34801561012057600080fd5b50610155600480360381019080803573ffffffffffffffffffffffffffffffffffffffff1690602001909291905050506104b9565b005b34801561016357600080fd5b50610198600480360381019080803573ffffffffffffffffffffffffffffffffffffffff169060200190929190505050610558565b6040518082815260200191505060405180910390f35b3480156101ba57600080fd5b506101c3610570565b604051808273ffffffffffffffffffffffffffffffffffffffff1673ffffffffffffffffffffffffffffffffffffffff16815260200191505060405180910390f35b34801561021157600080fd5b5061023060048036038101908080359060200190929190505050610595565b6040518085815260200184600019166000191681526020018360001916600019168152602001826000191660001916815260200194505050505060405180910390f35b34801561027f57600080fd5b506102886105c5565b604051808273ffffffffffffffffffffffffffffffffffffffff1673ffffffffffffffffffffffffffffffffffffffff16815260200191505060405180910390f35b3480156102d657600080fd5b506102f960048036038101908080356000191690602001909291905050506105eb565b6040518082815260200191505060405180910390f35b34801561031b57600080fd5b50610350600480360381019080803573ffffffffffffffffffffffffffffffffffffffff169060200190929190505050610603565b005b6000600160009054906101000a900473ffffffffffffffffffffffffffffffffffffffff1673ffffffffffffffffffffffffffffffffffffffff163373ffffffffffffffffffffffffffffffffffffffff161415156103b057600080fd5b60056000815480929190600101919050555060806040519081016040528060055481526020018560001916815260200184600019168152602001836000191681525060026000600554815260200190815260200160002060008201518160000155602082015181600101906000191690556040820151816002019060001916905560608201518160030190600019169055905050600554600360008773ffffffffffffffffffffffffffffffffffffffff1673ffffffffffffffffffffffffffffffffffffffff16815260200190815260200160002081905550600554600460008660001916600019168152602001908152602001600020819055506005549050949350505050565b6000809054906101000a900473ffffffffffffffffffffffffffffffffffffffff1673ffffffffffffffffffffffffffffffffffffffff163373ffffffffffffffffffffffffffffffffffffffff1614151561051457600080fd5b80600160006101000a81548173ffffffffffffffffffffffffffffffffffffffff021916908373ffffffffffffffffffffffffffffffffffffffff16021790555050565b60036020528060005260406000206000915090505481565b6000809054906101000a900473ffffffffffffffffffffffffffffffffffffffff1681565b60026020528060005260406000206000915090508060000154908060010154908060020154908060030154905084565b600160009054906101000a900473ffffffffffffffffffffffffffffffffffffffff1681565b60046020528060005260406000206000915090505481565b6000809054906101000a900473ffffffffffffffffffffffffffffffffffffffff1673ffffffffffffffffffffffffffffffffffffffff163373ffffffffffffffffffffffffffffffffffffffff1614151561065e57600080fd5b600073ffffffffffffffffffffffffffffffffffffffff168173ffffffffffffffffffffffffffffffffffffffff161415151561069a57600080fd5b806000806101000a81548173ffffffffffffffffffffffffffffffffffffffff021916908373ffffffffffffffffffffffffffffffffffffffff160217905550505600a165627a7a72305820689493a2b24252805ee2140c20a6cdd7e6b1e37105f54f200b68ba9bd919fe420029",
  "source": "pragma solidity ^0.4.23;\n\nimport '../Helpers/DataBaseParent.sol';\n\ncontract UserDataBase is DataBaseParent {\n\n    mapping(uint => Profile) public profiles;\n    mapping (address => uint) public addresses;\n    mapping (bytes32 => uint) public usernames; \n\n    struct Profile {\n        uint id;\n        bytes32 username;\n        bytes32 givenName;\n        bytes32 familyName;\n    }\n\n    uint latestUserId = 0;\n\n    function createUser (address _address, bytes32 _username, bytes32 _givenName, bytes32 _familyName) public onlyManager returns(uint _newUserId) {\n        latestUserId++;\n        profiles[latestUserId] = Profile(\n            latestUserId, \n            _username,\n            _givenName,\n            _familyName\n        );\n\n        addresses[_address] = latestUserId;\n        usernames[_username] = latestUserId;\n\n        return latestUserId;\n    }\n}",
  "sourcePath": "/home/mihai/Documents/UPT/licenta/pass_storage/contracts/Users/UserDataBase.sol",
  "compiler": {
    "name": "solc",
    "version": "0.4.23+commit.124ca40d.Linux.g++"
  },
  "schemaVersion": "3.4.0",
  "updatedAt": "2021-05-26T16:40:55.674Z",
  "networkType": "ethereum",
  "devdoc": {
    "methods": {}
  },
  "userdoc": {
    "methods": {}
  }
}